:10000000EDC000001CC100001AC1000018C10000B2
:1000100016C1000014C1000012C1000010C1000090
:100020000EC100000CC100000AC1000008C10000A0
:1000300006C1000004C1000002C1000000C10000B0
:10004000FEC00000FCC00000FAC00000F8C00000C4
:10005000F6C00000F4C00000F2C000000C94F1589B
:10006000EEC000000C948C600C94BC60E8C00000F2
:10007000E6C00000E4C00000E2C00000E0C00000F4
:10008000DEC00000DCC00000DAC00000D8C0000004
:100090000C9433610C946361D2C000000C94350958
:1000A000CEC00000CCC00000CAC00000C8C0000024
:1000B000C6C00000C4C00000C2C00000C0C0000034
:1000C000BEC00000BCC00000BAC000000C94DA61E1
:1000D0000C940A62B4C000000C9481620C94B1626A
:1000E000AEC0000000002200250028002B002E00DA
:1000F0003100340002010000050108010B01050573
:100100000505070508080808020202020A0A08088D
:1001100004040404010101010101010103030303BB
:1001200003030303040707070C0C0C0C0C0C0C0C4A
:100130000202020206060606060606060B0B0B0B5B
:100140000B0B0B0B01021020200808102040102080
:10015000408002010201080402010102040810208B
:100160004080804020100804020180040201804089
:1001700020100804020108040201010204081020F2
:100180004080010204081020408000000A0B020990
:100190000C0D0E0807030401000000000000000021
:1001A000000000000000000000000000000000004F
:1001B000000000000000121110000000000000000C
:1001C000000000000000000000000000000000002F
:1001D0007404CC0E2761CE6175621E6311241FBEAC
:1001E000CFEFD1E2DEBFCDBF00E00CBF12E0A0E058
:1001F000B2E0E4EDF7EC00E00BBF02C007900D9217
:10020000A23FB107D9F729E0A2EFB2E001C01D92E9
:10021000AD37B207E1F710E0CEEED0E000E006C067
:1002200021970109802FFE010E94B363C83ED107C8
:1002300080E00807A9F70E940B560C94E863E0CE13
:10024000CF93DF9300D01F92CDB7DEB79A83898317
:100250007C836B8389819A812B813C81FC01338370
:10026000228300000F900F900F900F90DF91CF919D
:100270000895CF93DF931F921F92CDB7DEB79A8375
:1002800089832AEE32E089819A81FC0131832083BF
:1002900089819A81FC011382128200000F900F90D5
:1002A000DF91CF910895CF93DF931F921F92CDB727
:1002B000DEB79A83898380E090E00F900F90DF9102
:1002C000CF910895CF93DF931F921F92CDB7DEB7E2
:1002D0009A83898300000F900F90DF91CF9108954A
:1002E000CF93DF931F921F92CDB7DEB79A83898396
:1002F00089819A81BEDF25E432E089819A81FC01FF
:100300003183208329813A8188EE93E0A0E0B0E038
:10031000F90184839583A683B78300000F900F9023
:10032000DF91CF910895CF93DF931F921F92CDB7A6
:10033000DEB79A83898389819A81D2DF23E332E011
:1003400089819A81FC013183208300000F900F90F6
:10035000DF91CF910895CF93DF931F921F92CDB776
:10036000DEB79A83898310921203109213031092BE
:10037000350310923603C4D28EE394E0B1D581EFF9
:1003800093E09AD500000F900F90DF91CF910895E0
:10039000CF92EF920F931F93CF93DF9300D000D0B3
:1003A00000D01F921F92CDB7DEB79B838A836C83E8
:1003B0004D830E831F8328873987EA86CB868A85FB
:1003C0008823D9F18A819B816C81AFD08A85843062
:1003D00010F083E08A878A859FEF980F9A8791E0D3
:1003E000882309F490E0992321F18A819B81FC0103
:1003F00080819181FC01208131818A85882F90E064
:10040000AC01440F551F440F551F440F551F8E81DB
:100410009F81A885B98504C0B695A79597958795BE
:100420004A95D2F7482F8A819B81642FF90119954B
:10043000D2CF8A819B8160E0A8D08D81813210F07B
:1004400080E28D832B854D8162EF72E08C81A4D296
:1004500089831092120389818093130389812B96DB
:100460000FB6F894DEBF0FBECDBFDF91CF911F91C5
:100470000F91EF90CF900895CF92EF920F931F932B
:10048000CF93DF9300D01F921F92CDB7DEB79A8330
:1004900089836B834C832D8389819A81CD80E12C64
:1004A00000E010E098014C816B8172DF0F900F909B
:1004B0000F900F900F90DF91CF911F910F91EF90C0
:1004C000CF900895CF93DF9300D01F92CDB7DEB7C2
:1004D0009A8389836B834C8389819A8121E04C8143
:1004E0006B81CADF0F900F900F900F90DF91CF912B
:1004F0000895CF93DF9300D000D0CDB7DEB79A83B5
:1005000089837C836B835E834D834D813B818981AD
:100510009A8121E0632FB0DF26960FB6F894DEBFF4
:100520000FBECDBFDF91CF910895CF93DF9300D061
:10053000CDB7DEB79A8389836B8381E080933703DD
:100540008B818093140310923503109236030000C0
:100550000F900F900F90DF91CF910895CF93DF937D
:1005600000D01F92CDB7DEB79A8389837C836B83DB
:100570002B8189819A81622FD8DF00000F900F9024
:100580000F900F90DF91CF9108950F93CF93DF934A
:1005900000D01F92CDB7DEB79B838A836C83909186
:1005A0003603809114030C8121E0492F65E173E04B
:1005B0000FD38983109235031092360310923703BC
:1005C00089810F900F900F900F90DF91CF910F9135
:1005D0000895CF93DF931F921F92CDB7DEB79A8312
:1005E000898389819A8161E0D0DF0F900F90DF913C
:1005F000CF910895CF93DF9300D0CDB7DEB79A8324
:1006000089836B83809137038823F9F080913603C7
:10061000803240F089819A8161E070E011DE80E0F3
:1006200090E019C080913503882F90E02B818B5E7C
:100630009C4FFC012083809135038F5F80933503AD
:10064000809135038093360304C0CE01039661E0A8
:10065000EAD381E090E00F900F900F90DF91CF915F
:100660000895CF93DF9300D000D01F921F92CDB793
:10067000DEB79C838B837E836D8358874F83809105
:100680003703882321F11A82198229813A818F81C7
:1006900098852817390700F58B819C81FC018081A2
:1006A0009181FC01208131814D815E8189819A8116
:1006B000840F951FFC0140818B819C81642FF9017F
:1006C000199589819A8101969A838983DECF2F813A
:1006D0008D819E81622FA7D38F81988528960FB632
:1006E000F894DEBF0FBECDBFDF91CF910895CF93B9
:1006F000DF931F921F92CDB7DEB79A8389838091D3
:100700001303282F30E080911203882F90E0A90175
:10071000481B590BCA010F900F90DF91CF9108959C
:10072000CF93DF9300D01F92CDB7DEB79C838B832E
:100730008FEF9FEF9A838983909112038091130327
:10074000981788F480911203882F90E08E509D4F67
:10075000FC018081882F90E09A8389838091120325
:100760008F5F8093120389819A810F900F900F9071
:100770000F90DF91CF910895CF93DF9300D01F9218
:10078000CDB7DEB79C838B838FEF9FEF9A838983EE
:100790009091120380911303981760F480911203D3
:1007A000882F90E08E509D4FFC018081882F90E033
:1007B0009A83898389819A810F900F900F900F906F
:1007C000DF91CF910895CF93DF931F921F92CDB702
:1007D000DEB79A83898300000F900F90DF91CF914D
:1007E0000895CF93DF9300D01F921F92CDB7DEB74D
:1007F0009B838A837D836C8380913A0390913B0332
:10080000892B89F19091120380911303981768F155
:1008100019828981882F90E02C813D81821793076E
:10082000A4F48981882F90E02A813B81280F391F09
:100830008981882F90E0F90120818E509D4FFC0125
:10084000208389818F5F8983E4CF109212038C818A
:100850008093130320913A0330913B038C819D8157
:10086000F901199503C0000001C000000F900F901E
:100870000F900F900F90DF91CF910895CF93DF935A
:10088000CDB7DEB78091380390913903892B59F0A9
:1008900010923503109236038091380390913903FA
:1008A000FC01199501C00000DF91CF910895CF930D
:1008B000DF9300D01F92CDB7DEB79A8389837C8304
:1008C0006B8389819A81019739F48B819C81019690
:1008D00019F48CE393E027DD00000F900F900F9048
:1008E0000F90DF91CF910895CF93DF93CDB7DEB70F
:1008F0006FEF7FEF81E090E0DADFDF91CF91089535
:10090000CF93DF93CDB7DEB71092480381E0809399
:100910004A0310924B0384E161E00E94045C85E18C
:1009200061E00E94045C89EB90E0FC01208189EB8E
:1009300090E02E7FFC01208389EB90E0FC01208178
:1009400089EB90E02D7FFC01208388EB90E028E488
:10095000FC0120838CEB90E025E4FC012083000067
:10096000DF91CF910895CF93DF93CDB7DEB78CEBB6
:1009700090E0FC0120818CEB90E02A7BFC0120833D
:1009800084E160E00E94045C85E160E00E94045C18
:100990000000DF91CF910895CF93DF9300D000D076
:1009A00000D01F92CDB7DEB78E8378876F834987DB
:1009B0002A878985813210F080E001C10E948E591A
:1009C000DC01CB018A839B83AC83BD832AC08091E9
:1009D0004C0390914D03A0914E03B0914F03892B8E
:1009E0008A2B8B2BF1F00E948E599B01AC018A81DE
:1009F0009B81AC81BD81281B390B4A0B5B0B80911D
:100A00004C0390914D03A0914E03B0914F03821778
:100A10009307A407B50728F480915103FDD380E024
:100A2000CEC080914803882391F681E080934803EB
:100A30008A8580934A038FEF8093BB0310927603DD
:100A4000898581508093770381E0809349038E816B
:100A5000882F90E0880F991F982F80914903892B48
:100A60008093490380914B03813009F04AC0109272
:100A70004B030E948E59DC01CB018A839B83AC839C
:100A8000BD838BEB90E020914903FC012083809192
:100A90004C0390914D03A0914E03B0914F03892BCD
:100AA0008A2B8B2BF1F00E948E599B01AC018A811D
:100AB0009B81AC81BD81281B390B4A0B5B0B80915C
:100AC0004C0390914D03A0914E03B0914F038217B8
:100AD0009307A407B50728F4809151039DD380E0C4
:100AE0006EC08CEB90E0FC018081882F90E08870D4
:100AF0009927892B31F68CEB90E025ECFC012083C3
:100B000005C08CEB90E025EEFC0120830E948E59FD
:100B1000DC01CB018A839B83AC83BD832AC0809197
:100B20004C0390914D03A0914E03B0914F03892B3C
:100B30008A2B8B2BF1F00E948E599B01AC018A818C
:100B40009B81AC81BD81281B390B4A0B5B0B8091CB
:100B50004C0390914D03A0914E03B0914F03821727
:100B60009307A407B50728F48091510355D380E07B
:100B700026C080914803813091F280917603998557
:100B8000891718F4809176038987198213C08981A7
:100B9000282F30E08981882F90E04F815885840F7D
:100BA000951F2A5A3C4FF9012081FC01208389813D
:100BB0008F5F898399818985981748F389852A965B
:100BC0000FB6F894DEBF0FBECDBFDF91CF91089571
:100BD0000F93CF93DF9300D000D000D01F921F92CD
:100BE000CDB7DEB78E8378876F8349872A870B87D7
:100BF0008985813210F081E00CC10E948E59DC01A0
:100C0000CB018A839B83AC83BD832AC080914C0334
:100C100090914D03A0914E03B0914F03892B8A2BE5
:100C20008B2BF1F00E948E599B01AC018A819B8134
:100C3000AC81BD81281B390B4A0B5B0B80914C03A7
:100C400090914D03A0914E03B0914F0382179307EB
:100C5000A407B50728F480915103DED285E0D9C0FE
:100C600080914803882391F682E0809348038B8526
:100C700080934A038FEF8093BB031092760389859C
:100C800080937703198213C08981882F90E02F8188
:100C90003885280F391F8981882F90E0F90120813C
:100CA0008A5A9C4FFC01208389818F5F89839981B7
:100CB0008985981748F3109249038E81882F90E018
:100CC000880F991F982F80914903892B809349039E
:100CD00080914B03813009F04AC010924B030E946F
:100CE0008E59DC01CB018A839B83AC83BD838BEB64
:100CF00090E020914903FC01208380914C03909166
:100D00004D03A0914E03B0914F03892B8A2B8B2B5F
:100D1000F1F00E948E599B01AC018A819B81AC81CC
:100D2000BD81281B390B4A0B5B0B80914C039091C2
:100D30004D03A0914E03B0914F0382179307A40770
:100D4000B50728F48091510367D285E062C08CEB2F
:100D500090E0FC018081882F90E088709927892B92
:100D600031F68CEB90E025ECFC01208305C08CEB88
:100D700090E025EEFC0120830E948E59DC01CB011E
:100D80008A839B83AC83BD832AC080914C0390915E
:100D90004D03A0914E03B0914F03892B8A2B8B2BCF
:100DA000F1F00E948E599B01AC018A819B81AC813C
:100DB000BD81281B390B4A0B5B0B80914C03909132
:100DC0004D03A0914E03B0914F0382179307A407E0
:100DD000B50728F4809151031FD285E01AC08A8597
:100DE000882321F080914803823079F28091BB03FF
:100DF0008F3F11F480E00DC08091BB03803211F46D
:100E000082E007C08091BB03803311F483E001C00E
:100E100084E02B960FB6F894DEBF0FBECDBFDF91F6
:100E2000CF910F910895CF93DF9300D01F92CDB74C
:100E3000DEB79B838A836C8380919903282F30E0EF
:100E40008C81882F90E0820F931F819714F081E0AE
:100E50002CC080914803843011F082E026C01982B2
:100E600019C08981882F90E02A813B81280F391F82
:100E700080919903482F50E08981882F90E0840F5A
:100E8000951FF901208188589C4FFC01208389819E
:100E90008F5F898399818C81981718F390919903BA
:100EA0008C81890F8093990380E00F900F900F90B1
:100EB0000F90DF91CF910895CF93DF931F921F92F0
:100EC000CDB7DEB79A83898389819A819093550340
:100ED0008093540300000F900F90DF91CF910895FD
:100EE000CF93DF931F921F92CDB7DEB79A8389838A
:100EF00089819A81909353038093520300000F904D
:100F00000F90DF91CF910895CF93DF931F92CDB7CC
:100F1000DEB789838981882331F08CEB90E025EC62
:100F2000FC01208305C08CEB90E025E8FC012083C8
:100F300000000F90DF91CF910895CF93DF93CDB74D
:100F4000DEB7A5970FB6F894DEBF0FBECDBF8CEB12
:100F500090E025EDFC01208388E08D838D81282F92
:100F600030E040E050E080914C0390914D03A0911F
:100F70004E03B0914F03820F931FA41FB51F01971B
:100F8000A109B1092D81222F30E040E050E0BC01E1
:100F9000CD010E949163DA01C90189839A83AB83F1
:100FA000BC8315C180914C0390914D03A0914E03D9
:100FB000B0914F03892B8A2B8B2B09F408C18981AF
:100FC0009A81AB81BC81892B8A2B8B2B09F4FBC0C6
:100FD00080E090E0A0E2B1E48E839F83A887B98788
:100FE0002BEA3AEA4AEA50E46E817F818885998546
:100FF0000E948E58DC01CB018A879B87AC87BD8716
:1010000020E030E040E850E46E817F81888599855A
:101010000E948E58DC01CB018E879F87A88BB98BED
:1010200020E030E040E85FE36A857B858C859D8524
:101030000E94405788231CF481E08A8BB2C020E0D4
:101040003FEF4FE757E46E857F85888999890E9435
:101050008A5818160CF07BC020E030E04AE754E4D0
:101060006E817F81888599850E944457DC01CB0180
:101070008B8B9C8BAD8BBE8B20E030E04AE755E438
:101080006B897C898D899E890E948E58DC01CB01F9
:101090008F8B988FA98FBA8F20E030E040E85FE314
:1010A0006F89788D898D9A8D0E94405788232CF402
:1010B00081E090E09C8F8B8F3FC020E03FEF4FE7B7
:1010C00057E46F89788D898D9A8D0E948A581816F9
:1010D0004CF520E030E040E251E46B897C898D8959
:1010E0009E890E948E58DC01CB01BC01CD010E947B
:1010F000AC57DC01CB019C8F8B8F0FC080E991E056
:101100009E8F8D8F8D8D9E8D0197F1F79E8F8D8F88
:101110008B8D9C8D01979C8F8B8F8B8D9C8D892BBC
:1011200069F73FC06F89788D898D9A8D0E94AC5781
:10113000DC01CB019C8F8B8F8B8D9C8D98A38F8F27
:101140008F8D98A10197F1F798A38F8F2AC020E087
:1011500030E04FE753E46A857B858C859D850E944E
:101160008A581816ACF46E857F85888999890E9403
:10117000AC57DC01CB019AA389A389A19AA19CA3B6
:101180008BA38BA19CA10197F1F79CA38BA30FC00C
:101190006A857B858C859D850E94AC57DC01CB01DF
:1011A0008A8B8A898DA38DA18A95F1F78DA3898178
:1011B0009A81AB81BC810197A109B10989839A8386
:1011C000AB83BC8304C08091510326D00DC08CEB4F
:1011D00090E0FC018081882F90E080719927892B15
:1011E00009F0E0CE10924803A5960FB6F894DEBF42
:1011F0000FBECDBFDF91CF910895CF93DF93CDB7D1
:10120000DEB78CEB90E025ECFC01208310924803C4
:101210000000DF91CF910895CF93DF9300D0CDB739
:10122000DEB78B8381E0809350038B818823B1F0FC
:1012300088EB90E0FC01808189838AEB90E0FC01DF
:1012400080818A8390DB5CDB8AEB90E02A81FC0161
:10125000208388EB90E02981FC01208300000F901F
:101260000F900F90DF91CF9108951F920F920FB6BC
:101270000F9211240BB60F922F933F934F935F93CE
:101280006F937F938F939F93AF93BF93EF93FF934E
:10129000CF93DF93CDB7DEB789EB90E0FC0180817F
:1012A000882F90E0887F9927092E000CAA0BBB0B92
:1012B000893F9105A105B10508F0FFC1FC01882710
:1012C000EB59F64F8F4F0C94B363580B5D0B5D0BCE
:1012D0005D0B5D0B5D0B5D0B5D0B5E0A5D0B5D0BCE
:1012E0005D0B5D0B5D0B5D0B5D0B5E0A5D0B5D0BBE
:1012F0005D0B5D0B5D0B5D0B5D0B670A5D0B5D0BA5
:101300005D0B5D0B5D0B5D0B5D0B910A5D0B5D0B6A
:101310005D0B5D0B5D0B5D0B5D0B670A5D0B5D0B84
:101320005D0B5D0B5D0B5D0B5D0B960A5D0B5D0B45
:101330005D0B5D0B5D0B5D0B5D0B9B0A5D0B5D0B30
:101340005D0B5D0B5D0B5D0B5D0BB00A5D0B5D0B0B
:101350005D0B5D0B5D0B5D0B5D0BDD0A5D0B5D0BCE
:101360005D0B5D0B5D0B5D0B5D0BA00A5D0B5D0BFB
:101370005D0B5D0B5D0B5D0B5D0BBC0A5D0B5D0BCF
:101380005D0B5D0B5D0B5D0B5D0BDF0A5D0B5D0B9C
:101390005D0B5D0B5D0B5D0B5D0BDF0A5D0B5D0B8C
:1013A0005D0B5D0B5D0B5D0B5D0BDF0A5D0B5D0B7C
:1013B0005D0B5D0B5D0B5D0B5D0BDF0A5D0B5D0B6C
:1013C0005D0B5D0B5D0B5D0B5D0BE70A5D0B5D0B54
:1013D0005D0B5D0B5D0B5D0B5D0B1E0B5D0B5D0B0C
:1013E0005D0B5D0B5D0B5D0B5D0BE70A5D0B5D0B34
:1013F0005D0B5D0B5D0B5D0B5D0B1E0B5D0B5D0BEC
:101400005D0B5D0B5D0B5D0B5D0B010B5D0B5D0BF8
:101410005D0B5D0B5D0B5D0B5D0B210B5D0B5D0BC8
:101420005D0B5D0B5D0B5D0B5D0B210B5D0B5D0BB8
:101430005D0B5D0B5D0B5D0B5D0B370B5D0B5D0B92
:101440005D0B5D0B5D0B5D0B5D0B530B5D0B5D0B66
:101450005D0B5D0B5D0B5D0B5D0B530B5D0B5D0B56
:101460005D0B5D0B5D0B5D0B5D0B5D0B5D0B5D0B3C
:101470005D0B5D0B5D0B5D0B5D0B5D0B5D0B5D0B2C
:101480005D0B5D0B5D0B5D0B5D0B5D0B5D0B5D0B1C
:101490005D0B5D0B5D0B5D0B5D0B5D0B5D0B5D0B0C
:1014A0005D0B5D0B5D0B5D0B5D0B5D0B5D0B5D0BFC
:1014B0005D0B5D0B5D0B5D0B5D0B5C0B8BEB90E0D7
:1014C00020914903FC01208381E01EDDF6C090914C
:1014D000760380917703981798F48091760391E0D2
:1014E000980F90937603282F30E08BEB90E02A5AE8
:1014F0003C4FF9012081FC01208381E005DDDDC046
:1015000080914A03882311F018DDD7C081E08093D1
:101510004B038CEB90E024EAFC01208310924803FB
:10152000CCC080E28093BB0308DDC7C080E380931A
:10153000BB0303DDC2C088E38093BB035EDEBDC096
:101540002BEB30E08091760391E0980F9093760337
:10155000882F90E0F90120818A5A9C4FFC0120835A
:101560009091760380917703981718F481E0CCDC92
:10157000A4C080E0C9DCA1C02BEB30E080917603F1
:1015800091E0980F90937603882F90E0F9012081E5
:101590008A5A9C4FFC01208380914A03882311F0D2
:1015A000CCDC8BC081E080934B038CEB90E024EA91
:1015B000FC0120831092480380C0BFDC7EC083E022
:1015C000809348031092BA0381E09EDC76C080913C
:1015D000BA03803298F42BEB30E08091BA0391E0AB
:1015E000980F9093BA03882F90E0F90120818656D6
:1015F0009C4FFC01208381E087DC5FC080E084DCBD
:101600005CC0FBDD8091BA03803240F48091BA0364
:10161000882F90E086569C4FFC0110822091540345
:10162000309155038091BA03882F90E0BC018AE97C
:1016300093E0F90119951092BA033FC080E064DC91
:101640003CC084E080934803109298031092990361
:101650008091520390915303FC0119958091990355
:10166000882329F481E08093990310927803809174
:10167000980391E0980F90939803282F30E08BEB1C
:1016800090E028583C4FF9012081FC012083909183
:10169000980380919903981718F481E035DC0DC008
:1016A00080E032DC0AC081E02FDC1092480305C0E4
:1016B0001092BB0342DC01C000000000DF91CF911B
:1016C000FF91EF91BF91AF919F918F917F916F911A
:1016D0005F914F913F912F910F900BBE0F900FBED6
:1016E0000F901F9018950F931F93CF93DF9300D007
:1016F00000D0CDB7DEB789836A835C834B833E839A
:101700002D832D813E818B819C8189019C0141E04B
:101710006A8189810BD026960FB6F894DEBF0FBE82
:10172000CDBFDF91CF911F910F9108950F931F931C
:10173000CF93DF93CDB7DEB72D970FB6F894DEBF0A
:101740000FBECDBF8F83688749873B872A871D8758
:101750000C8719820E946259DC01CB018B839C8328
:10176000AD83BE831A829A818985981708F06DC06F
:101770006F818CE393E00E94950268858CE393E08F
:101780000E94FA028CE393E00E94E9026F818CE3ED
:1017900093E00E9495028985282F30E08A81882F66
:1017A00090E0A901481B590BCA018132910514F040
:1017B00080E290E0482F6F818CE393E00E94620208
:1017C0008CE393E00E947703892BE1F08C859D8563
:1017D000892BB1F00E9462599B01AC018B819C81E5
:1017E000AD81BE81281B390B4A0B5B0B8C859D8517
:1017F000CC01A0E0B0E0281739074A075B0710F4D6
:1018000081E001C080E08823A1F08CE393E00E9496
:101810009003AC018981082E000C990B2A853B8529
:10182000820F931F242FFC01208389818F5F89837E
:10183000C7CF8CE393E00E94E9028985813208F0EA
:1018400080E29A81890F8A838ECF8C859D85892B32
:1018500011F10E9462599B01AC018B819C81AD8189
:10186000BE81281B390B4A0B5B0B8C859D85CC01F7
:10187000A0E0B0E0281739074A075B0760F08981CC
:10188000282F880F330B8985882F90E02817390778
:1018900014F481E001C080E0882311F08FEF898388
:1018A00089812D960FB6F894DEBF0FBECDBFDF91B4
:1018B000CF911F910F910895CF93DF9300D01F9286
:1018C0001F92CDB7DEB78A836B834C832D838091C3
:1018D0000002909101029C01CE010196AC016B8146
:1018E0008A8101DF8D81882371F08C81282F30E07F
:1018F00081E090E002C0880F991F2A95E2F7982FA7
:101900008981892B0DC08C81282F30E081E090E007
:1019100002C0880F991F2A95E2F780959981892343
:1019200089838981482F6B818A8108D00F900F901D
:101930000F900F900F90DF91CF910895CF93DF9389
:1019400000D0CDB7DEB789836A834B83CE0103967F
:101950009C0141E06A81898106D00F900F900F9021
:10196000DF91CF910895CF93DF9300D000D01F92E5
:10197000CDB7DEB78B836C834D833F832E831A8272
:101980006B818CE393E00E9495026C818CE393E081
:101990000E94FA02198299818D81981790F48981A9
:1019A000882F90E02E813F81820F931FFC01808160
:1019B000682F8CE393E00E94FA0289818F5F89830C
:1019C000EACF8CE393E00E94E9028A8381E09A8166
:1019D000992309F080E027960FB6F894DEBF0FBE7A
:1019E000CDBFDF91CF910895CF93DF9300D01F92A9
:1019F000CDB7DEB79A8389837C836B8389819A8193
:101A0000FC0180819181FC01208131814B818981A0
:101A10009A81642FF90119950F900F900F900F90F4
:101A2000DF91CF910895CF93DF931F921F92CDB78F
:101A3000DEB79A83898329813A8180E090E0A0E82B
:101A4000BFE3F90180839183A283B38329813A8123
:101A500080E090E0A0E8BFE3F90184839583A6834A
:101A6000B78329813A8180E090E0A0E8BFE3F901E3
:101A700080879187A287B38700000F900F90DF9136
:101A8000CF910895CF93DF9300D0CDB7DEB79A837F
:101A900089836B8365E070E080E090E00E94EC5900
:101AA0008B81882321F089819A8160E016D0898119
:101AB0009A8140E760E02FD089819A8140EA61E015
:101AC0002AD089819A8140E062E025D000000F9001
:101AD0000F900F90DF91CF910895CF93DF9300D0B7
:101AE000CDB7DEB79A8389836B838B81833060F4B3
:101AF00089819A814B8162E00ED064E670E080E0DB
:101B000090E00E94EC5901C000000F900F900F90E0
:101B1000DF91CF910895CF93DF9300D01F92CDB77F
:101B2000DEB79A8389836B834C836EE170E08CE32C
:101B300093E00E94AE026B818CE393E00E94FA0274
:101B40006C818CE393E00E94FA028CE393E00E94A4
:101B5000E90200000F900F900F900F90DF91CF914E
:101B600008950F931F93CF93DF9300D000D01F925F
:101B70001F92CDB7DEB79A8389837C836B835E83A4
:101B80004D8338872F836EE170E08CE393E00E94F1
:101B9000AE0263E070E08CE393E026DF8CE393E039
:101BA0000E94E9026EE170E08CE393E00E94AE02D5
:101BB00046E050E06EE170E08CE393E00E94790231
:101BC0008CE393E00E94770321E0069709F020E080
:101BD0002223B1F18CE393E00E949003182F002799
:101BE0008CE393E00E9490039801282B392B8B8182
:101BF0009C81FC01318320838CE393E00E9490035D
:101C0000182F00278CE393E00E9490039801282B63
:101C1000392B8F819885FC01318320838CE393E0FD
:101C20000E949003182F00278CE393E00E949003FA
:101C30009801282B392B8D819E81FC0131832083D3
:101C40008CE393E00E94E902000028960FB6F89416
:101C5000DEBF0FBECDBFDF91CF911F910F910895D1
:101C6000CF93DF93CDB7DEB78CE393E00E94AB0157
:101C700061E08CEB93E006DF20E045E06AE688E671
:101C80001BDE21E041E067E388E616DE20E046E067
:101C90006BE688E611DE0000DF91CF9108950F9387
:101CA0001F93CF93DF931F921F92CDB7DEB79A8316
:101CB000898328ED33E046ED53E064ED73E08CEB6F
:101CC00093E04FDF8091D4039091D503092E000C4F
:101CD000AA0BBB0BBC01CD010E94DA57DC01CB0182
:101CE00029813A81F90180839183A283B383809112
:101CF000D6039091D70329813A8189010C5F1F4F48
:101D0000092E000CAA0BBB0BBC01CD010E94DA57B7
:101D1000DC01CB01F80180839183A283B38380919E
:101D2000D8039091D90329813A818901085F1F4F17
:101D3000092E000CAA0BBB0BBC01CD010E94DA5787
:101D4000DC01CB01F80180839183A283B38300007F
:101D50000F900F90DF91CF911F910F910895CF9326
:101D6000DF9300D01F92CDB7DEB79A8389837C833F
:101D70006B8389819A81019739F48B819C810196CB
:101D800019F48CEB93E04FDE00000F900F900F9052
:101D90000F90DF91CF910895CF93DF93CDB7DEB74A
:101DA0006FEF7FEF81E090E0DADFDF91CF91089570
:101DB000CF93DF9300D000D0CDB7DEB79C838B8369
:101DC0007E836D831A82198289819A8126960FB645
:101DD000F894DEBF0FBECDBFDF91CF910895CF93B2
:101DE000DF9300D000D01F921F92CDB7DEB79E8345
:101DF0008D8378876F831C821B828D819E81892BC6
:101E000019F48FEF9FEFB1C08F819885892B19F45A
:101E10008FEF9FEFAAC08091020290910302A091E0
:101E20000402B09105028E3F9F4FAF4FBF4F61F448
:101E30008FEF9FEFDC018093020290930302A09347
:101E40000402B09305020FC0809102029091030238
:101E5000A0910402B09105022F813885F901808399
:101E60009183A283B3838091020290910302A09197
:101E70000402B09105028D819E81FC0182819381D3
:101E8000FC0180819181A281B38180931D04909394
:101E90001E04A0931F04B09320048D819E81FC0139
:101EA00082819381FC0184819581A681B781809391
:101EB000210490932204A0932304B09324048D81E1
:101EC0009E81FC0182819381FC0180859185A285A0
:101ED000B3858093250490932604A0932704B093A0
:101EE00028048D819E81FC0182819381FC0184857F
:101EF0009585A685B7858093290490932A04A0939D
:101F00002B04B0932C0410922D0410922E041092E6
:101F10002F04109230040E94A21A1A8219821A8287
:101F2000198210C089819A81880F991F86529C4F0F
:101F30002DEC3AE1FC013183208389819A8101965D
:101F40009A83898389819A81029760F302D69C8360
:101F50008B838B819C81892B31F481E090E090937D
:101F60001C0480931B048B819C8128960FB6F894E7
:101F7000DEBF0FBECDBFDF91CF910895CF93DF932A
:101F8000CDB7DEB72C970FB6F894DEBF0FBECDBF2E
:101F900069877A878B879C871A8219821B821C82A9
:101FA0001D821E821F829091190481E0992309F0FD
:101FB00080E0888782E090E090931C0480931B046B
:101FC00089859A85AB85BC85892B8A2B8B2B59F407
:101FD00080911904882339F480911A04882319F414
:101FE00081E090E002C080E090E08F8330C06AE042
:101FF00070E080E090E00E94EC598B819C81AD8183
:10200000BE81805F984DAF4FBF4F8B839C83AD8364
:10201000BE8389859A85AB85BC858F3F9F4FAF4F27
:10202000BF4F81F02B813C814D815E8189859A85EE
:10203000AB85BC8582179307A407B50718F481E028
:1020400090E002C080E090E08F8380E0CAD580916C
:102050001904882339F480911A04882319F48F8194
:10206000882329F283E090E090931C0480931B0462
:102070008F81882321F08CE99FEF9A83898388855B
:10208000882311F00E94C91B89819A812C960FB672
:10209000F894DEBF0FBECDBFDF91CF910895CF93EF
:1020A000DF93CDB7DEB761970FB6F894DEBF0FBEF2
:1020B000CDBF9D878C874E875F87688B798B1A820F
:1020C000198281E08B838C859D858F3F910521F05E
:1020D00018F08FEF9FEF62C080911B0490911C0459
:1020E000039731F080911B0490911C04019731F407
:1020F00084E090E090931C0480931B048C859D8564
:10210000029708F58C859D85880F991F86529C4FF4
:10211000FC0180819181892BB1F00E9483209D83F5
:102120008C838C819D81029771F48C859D85880FAD
:10213000991F86529C4FFC01208131818C859D85A1
:10214000F90119958B838C859D859F838E832C85C2
:102150003D858E859F85A889B989A901BC01CD01DE
:10216000D5D4DC01CB0188879987AA87BB878B816F
:10217000882371F088859985AA85BB852E813F814A
:10218000AC01BD01C9010E9453209A83898304C018
:102190008E819F810E94C52089819A8161960FB6A8
:1021A000F894DEBF0FBECDBFDF91CF910895CF93DE
:1021B000DF931F921F92CDB7DEB71A82198280E09B
:1021C00010D59A83898389819A810F900F90DF912E
:1021D000CF910895CF93DF931F921F92CDB7DEB7B3
:1021E0001A82198286E090E090931C0480931B046D
:1021F00088D59A83898344E050E060E070E08AEDFE
:1022000093E00E94E1630E945B1B10921C041092F9
:102210001B0489819A810F900F90DF91CF910895CF
:10222000CF93DF93CDB7DEB780911A04DF91CF91C2
:102230000895CF93DF93CDB7DEB780913104DF915E
:10224000CF910895CF93DF9300D01F92CDB7DEB723
:1022500069837A838B839C8389819A81AB81BC81DA
:102260008093020290930302A0930402B0930502AC
:1022700080E090E00F900F900F900F90DF91CF9142
:1022800008958F929F92AF92BF92CF92DF92EF927A
:10229000FF920F931F93CF93DF93CDB7DEB72C97A9
:1022A0000FB6F894DEBF0FBECDBFCE010196F7DCAE
:1022B00089819A81AB81BC8180936F099093700969
:1022C000A0937109B09372098D819E81AF81B88509
:1022D0008093730990937409A0937509B09376095C
:1022E00089859A85AB85BC85809377099093780919
:1022F000A0937909B0937A0980916F099091700940
:10230000A0917109B0917209809363099093640957
:10231000A0936509B093660980917309909174093F
:10232000A0917509B0917609809367099093680927
:10233000A0936909B0936A0980917709909178090F
:10234000A0917909B0917A0980936B0990936C09F7
:10235000A0936D09B0936E092EED33E0F901828DE3
:10236000938DA48DB58D0196A11DB11DF901828FAC
:10237000938FA48FB58FF901828D938DA48DB58D28
:10238000892B8A2B8B2B79F42EED33E0F901868D86
:10239000978DA0A1B1A10196A11DB11DF901868F54
:1023A000978FA0A3B1A38EED93E0FC01828D938D56
:1023B000A48DB58DBC01CD010E94D8577B018C0145
:1023C0008EED93E0FC0182A193A1A4A1B5A19C0193
:1023D000AD01C801B7010E948E58DC01CB016C0130
:1023E0007D018EED93E0FC01868D978DA0A1B1A1BA
:1023F000BC01CD010E94D8574B015C018EED93E0EA
:10240000FC0182A193A1A4A1B5A19C01AD01C501CC
:10241000B4010E948E58DC01CB0120E030E040E89E
:102420005FE4BC01CD010E948E58DC01CB010EEDB2
:1024300013E09C01AD01C701B6010E94DC56DC012E
:10244000CB01F801868B978BA08FB18F00002C9663
:102450000FB6F894DEBF0FBECDBFDF91CF911F91B5
:102460000F91FF90EF90DF90CF90BF90AF909F9033
:102470008F900895CF93DF93CDB7DEB78EED93E0C5
:102480004BE250E060E070E00E94E1632EED33E04B
:102490008AE097EDAFE9B1E4F90186A397A3A0A77D
:1024A000B1A72EED33E08FE892ECA5EFBCE3F90184
:1024B00082A393A3A4A3B5A32EED33E084ED92E40D
:1024C000A8ECBCE7F90184839583A683B7832EED3E
:1024D00033E08BEC9CE0A1E8BBE3F90180879187B6
:1024E000A287B3872EED33E088EE93E2A1EAB1ED47
:1024F000F90184879587A687B7872EED33E08AEAAE
:1025000093EAA0E3B6ECF901808B918BA28BB38B9D
:102510008EED93E029E034E0FC013383228385E1F2
:1025200094E090930A048093090485E592E09093E7
:1025300016048093150485E592E090931804809327
:1025400017042EED33E08EED93E0FC018281938140
:102550002C5E3F4FFC01358324832EED33E08EED5E
:1025600093E0FC01828193812C5F3F4FFC01338318
:1025700022832EED33E08EED93E0FC018281938186
:102580002A5E3F4FFC013783268348E150E060E03C
:1025900070E083E699E00E94E16349E050E060E08A
:1025A00070E08AE599E00E94E16310925A0981E0A7
:1025B0008093620981E090E0A0E0B0E080935B0945
:1025C00090935C09A0935D09B0935E0949DB81E0BB
:1025D00080935F090000DF91CF910895CF93DF933F
:1025E000CDB7DEB780915A09882319F481E0809332
:1025F0005A090000DF91CF9108950F931F93CF9355
:10260000DF9300D000D000D01F92CDB7DEB79A8301
:1026100089834B835C836D837E830F83188729872F
:102620003A8729813A818B819C81AD81BE81F901F4
:1026300080839183A283B38389819A819C012C5FDB
:102640003F4F8F819885A985BA85F9018083918351
:10265000A283B38300002A960FB6F894DEBF0FBEA4
:10266000CDBFDF91CF911F910F910895EF92FF920F
:102670000F931F93CF93DF93CDB7DEB76A970FB653
:10268000F894DEBF0FBECDBF6D8B7E8B8F8B988F86
:102690005A8F498F19821A821B821C82F894898D65
:1026A0009A8D892B09F00BC180913E0490913F04D3
:1026B000A0914004B09141042D893E894F89588DE5
:1026C000281739074A075B07C8F080913E049091AC
:1026D0003F04A0914004B09141042D893E894F8967
:1026E000588D79018A01E81AF90A0A0B1B0BD801E7
:1026F000C7018D839E83AF83B88718C080913E0445
:1027000090913F04A0914004B09141042D893E89ED
:102710004F89588D79018A01E81AF90A0A0B1B0BB7
:10272000D801C7018D839E83AF83B887809142040F
:1027300090914304A0914404B09145042D813E81C1
:102740004F815885820F931FA41FB51F898B9A8BC9
:10275000AB8BBC8B8091420490914304A0914404C4
:10276000B091450429893A894B895C892817390732
:102770004A075B0798F48091460490914704A09122
:102780004804B09149040196A11DB11D80934604EF
:1027900090934704A0934804B093490489899A8987
:1027A000AB89BC898093420490934304A093440472
:1027B000B093450420914604309147044091480469
:1027C000509149048091420490914304A0914404A3
:1027D000B091450489019A01AC01BD0186E394E002
:1027E0000CDF8D899E89AF89B88D80933E049093CC
:1027F0003F04A0934004B09341042D813E814F815A
:10280000588580E395E7DC010E94BB639B01AC0126
:1028100080914A0490914B04A0914C04B0914D04D6
:10282000820F931FA41FB51F80934A0490934B04FB
:10283000A0934C04B0934D0480914A0490914B04B2
:10284000A0914C04B0914D0489839A83AB83BC83DF
:102850008091020290910302A0910402B0910502BE
:102860008F3F9F4FAF4FBF4F09F43CC18091020291
:1028700090910302A0910402B09105028E3F9F4FF8
:10288000AF4FBF4F09F42EC1209142043091430451
:1028900040914404509145048091020290910302BA
:1028A000A0910402B091050261E0281739074A0798
:1028B0005B0708F460E0862F8093310413C119860A
:1028C0001A861B861C861D861E861F86188A809186
:1028D000060290910702A0910802B09109028F3F71
:1028E0009F4FAF4FBF4FE1F08091060290910702DA
:1028F000A0910802B09109029C01AD012F5F3F4FEA
:102900004F4F5F4F8D899E89AF89B88DBC01CD0136
:102910000E949163DC01CB018D8B9E8BAF8BB88FB6
:1029200080913E0490913F04A0914004B0914104F5
:102930002D893E894F89588D281739074A075B072B
:1029400008F447C080913E0490913F04A091400458
:10295000B09141042D893E894F89588D79018A01B2
:10296000E81AF90A0A0B1B0BD801C70189879A8755
:10297000AB87BC8720913E0430913F0440914004D6
:10298000509141048D899E89AF89B88D79018A0162
:10299000E81AF90A0A0B1B0BD801C7018D879E871D
:1029A000AF87B88B2D853E854F85588989859A8557
:1029B000AB85BC8582179307A407B50728F0198655
:1029C0001A861B861C864BC01D861E861F86188A8B
:1029D00046C080913E0490913F04A0914004B09184
:1029E00041042D893E894F89588D79018A01E81A61
:1029F000F90A0A0B1B0BD801C70189879A87AB8795
:102A0000BC8720913E0430913F0440914004509196
:102A100041048D899E89AF89B88D79018A01E81AB0
:102A2000F90A0A0B1B0BD801C7018D879E87AF8758
:102A3000B88B2D853E854F85588989859A85AB85CC
:102A4000BC8582179307A407B50728F019861A8654
:102A50001B861C8604C01D861E861F86188A8985D3
:102A60009A85AB85BC85892B8A2B8B2BE1F0298538
:102A70003A854B855C8580E395E7DC010E94BB636A
:102A80009B01AC0180914A0490914B04A0914C04AD
:102A9000B0914D04820F931FA41FB51F89839A83A1
:102AA000AB83BC831FC0E0904A04F0904B040091BC
:102AB0004C0410914D042D853E854F85588980E347
:102AC00095E7DC010E94BB63DC01CB01A801970103
:102AD000281B390B4A0B5B0BDA01C90189839A83E6
:102AE000AB83BC83789489819A81AB81BC81BC0122
:102AF000CD016A960FB6F894DEBF0FBECDBFDF9151
:102B0000CF911F910F91FF90EF900895CF93DF9396
:102B100000D000D0CDB7DEB769837A838B839C83E6
:102B20005E834D832D813E8189819A81AB81BC81F9
:102B3000A901BC01CD019ADDDC01CB01BC01CD01B5
:102B400026960FB6F894DEBF0FBECDBFDF91CF91B2
:102B50000895CF93DF9300D000D0CDB7DEB71C82AD
:102B60001B821E821D821A821982109232041092D8
:102B7000330410923404109235049E012B5F3F4FB2
:102B8000CE010396B9010E94EC522D813E818B81CA
:102B90009C81B9010E9467409A83898389819A81C7
:102BA000892B19F089819A8113C09E012B5F3F4FB9
:102BB000CE010396B9010E9410532D813E818B8175
:102BC0009C81B9010E94271F9A83898389819A81F8
:102BD00026960FB6F894DEBF0FBECDBFDF91CF9122
:102BE0000895CF93DF9300D01F921F92CDB7DEB729
:102BF0008D831A8219821B8260E070E0CB010E94F3
:102C0000EC591C820E9431429A83898389819A817E
:102C1000892B39F089819A81029619F081E08B83A2
:102C20000DC08C81882321F489819A81029619F044
:102C300081E090E002C080E090E08C838B8188236B
:102C4000E1F40E945A1F9A83898389819A81892B92
:102C500039F089819A81029619F081E08B830DC049
:102C60008C81882321F489819A81029619F081E070
:102C700090E002C080E090E08C838B818823E1F4B7
:102C80000E94BC419A83898389819A81892B39F07A
:102C900089819A81029619F081E08B830DC08C8125
:102CA000882321F489819A81029619F081E090E0CD
:102CB00002C080E090E08C838D81882391F060E0F9
:102CC00070E0CB010E94EC598B81882319F48C8130
:102CD000882319F481E090E002C080E090E08B83CB
:102CE00002C081E08B838B81882309F48ACF89819C
:102CF0009A810F900F900F900F900F90DF91CF91CE
:102D00000895CF93DF9300D000D01F921F92CDB7CC
:102D1000DEB718861F8280913104882329F060E095
:102D200070E0CB010E94A6200E9483209E838D83A9
:102D300019821A821B821C8218C06AE070E080E04F
:102D400090E00E94EC5989819A81AB81BC81805FBF
:102D5000984DAF4FBF4F89839A83AB83BC8381E08B
:102D600040DF0E9483209E838D8389819A81AB817D
:102D7000BC8181159D42A143B14020F48D819E818B
:102D8000892BD9F60E948E2098878F830E94CC438E
:102D900098878F831092190410921A0410921D04C0
:102DA00010921E0410921F0410922004109221040D
:102DB00010922204109223041092240410922504ED
:102DC00010922604109227041092280410922904CD
:102DD00010922A0410922B0410922C0410922D04AD
:102DE00010922E0410922F04109230048EEF9FEF59
:102DF000AFEFBFEF8093020290930302A09304020F
:102E0000B09305021092310448E050E060E070E0B9
:102E100086E394E00E94E16310923E0410923F0426
:102E20001092400410924104109242041092430404
:102E300010924404109245041092460410924704E4
:102E4000109248041092490410924A0410924B04C4
:102E500010924C0410924D048F81988528960FB6DD
:102E6000F894DEBF0FBECDBFDF91CF910895CF9311
:102E7000DF9300D000D01F921F92CDB7DEB78091B4
:102E8000500490915104A0915204B09153049A833C
:102E9000898389819A81892B09F431C180915404F5
:102EA000882369F48091500490915104A0915204B8
:102EB000B0915304892B8A2B8B2B09F420C180916C
:102EC000680490916904029709F019C18091720415
:102ED000882309F014C189819A81FC018081918144
:102EE000A281B3818B839C83AD83BE8380916E046A
:102EF000882309F4F0C08091610490916204892BC9
:102F000031F08091610490916204029719F481E09C
:102F100090E002C080E090E08F8380916104909106
:102F20006204019731F080916104909162040297EC
:102F300019F481E090E002C080E090E088878F8102
:102F4000882309F462C08091550490915604A091A1
:102F50005704B09158049C01AD016B817C818D8137
:102F60009E810E948A588823B4F080916A049091CF
:102F70006B04A0916C04B0916D04209155043091C4
:102F800056044091570450915804BC01CD010E9451
:102F90004057882344F18091550490915604A091A4
:102FA0005704B09158049C01AD016B817C818D81E7
:102FB0009E810E948A58181644F580916A04909167
:102FC0006B04A0916C04B0916D0420915504309174
:102FD00056044091570450915804BC01CD010E9401
:102FE0004057882391F480915D0490915E04A091F4
:102FF0005F04B0916004892B8A2B8B2B19F481E03C
:103000008093710481E0809372048885882309F499
:1030100062C08091550490915604A0915704B091DC
:1030200058049C01AD016B817C818D819E810E9441
:1030300040578823B4F480916A0490916B04A09166
:103040006C04B0916D042091550430915604409168
:10305000570450915804BC01CD010E948A5888231E
:1030600044F58091550490915604A0915704B09175
:1030700058049C01AD016B817C818D819E810E94F1
:103080004057882341F580916A0490916B04A09188
:103090006C04B0916D042091550430915604409118
:1030A000570450915804BC01CD010E948A5818164B
:1030B00094F480915D0490915E04A0915F04B091BE
:1030C0006004892B8A2B8B2B19F481E08093710487
:1030D00081E0809372049091720481E0992309F059
:1030E00080E080936E048B819C81AD81BE81809352
:1030F0006A0490936B04A0936C04B0936D04000079
:1031000028960FB6F894DEBF0FBECDBFDF91CF91EA
:103110000895CF93DF931F92CDB7DEB719828091C8
:10312000680490916904892BC9F410926304109289
:10313000720480910E02882371F182E090E09093F6
:1031400069048093680410920E0280916404909147
:103150006504892B01F581E089831DC010920E0260
:1031600080916304882349F01092710410926904DD
:1031700010926804109263040EC0809164049091D0
:103180006504892B19F481E0898305C0809172045C
:10319000898310927204809168049091690482304E
:1031A0009105F9F08330910530F4009761F00197B3
:1031B00009F44CC1AEC18330910509F4EEC0049707
:1031C00009F46AC0A6C180910E02882309F4ACC13B
:1031D00082E090E0909369048093680410920E025C
:1031E000A3C18981882309F4A1C180915D049091D4
:1031F0005E04A0915F04B0916004181619061A06C7
:103200001B06ECF480916404909165040197B9F475
:1032100080915D0490915E04A0915F04B091600480
:103220008093730490937404A0937504B093760410
:1032300083E090E0909369048093680477C1809163
:103240000A0290910B02A0910C02B0910D02892B01
:103250008A2B8B2BD1F081E08093710480910A023C
:1032600090910B02A0910C02B0910D028093730417
:1032700090937404A0937504B093760484E090E076
:10328000909369048093680451C110927104109264
:103290006904109268044AC1809173049091740487
:1032A000A0917504B0917604892B8A2B8B2B99F011
:1032B0008091730490917404A0917504B091760488
:1032C0000197A109B1098093730490937404A093AA
:1032D0007504B09376048091730490917404A09166
:1032E0007504B0917604892B8A2B8B2B09F020C1B1
:1032F0008091660490916704019739F410927104EB
:10330000109269041092680413C18091590490913D
:103310005A04A0915B04B0915C04892B8A2B8B2BFF
:10332000C9F0109271048091590490915A04A091AF
:103330005B04B0915C048093730490937404A09335
:103340007504B093760481E090E0909369048093D3
:103350006804EEC089818823B9F080910A029091B7
:103360000B02A0910C02B0910D0280937304909314
:103370007404A0937504B093760484E090E0909375
:10338000690480936804D4C01092710482E090E0D4
:103390009093690480936804CBC0809173049091EA
:1033A0007404A0917504B0917604892B8A2B8B2B21
:1033B00099F08091730490917404A0917504B09178
:1033C00076040197A109B109809373049093740462
:1033D000A0937504B0937604809173049091740463
:1033E000A0917504B0917604892B8A2B8B2B09F060
:1033F000A1C080910A0290910B02A0910C02B091A1
:103400000D02892B8A2B8B2BD1F081E080937104E4
:1034100080910A0290910B02A0910C02B0910D02D2
:103420008093730490937404A0937504B09376040E
:1034300084E090E090936904809368047BC01092CC
:103440007104109269041092680474C0809173042E
:1034500090917404A0917504B0917604892B8A2B05
:103460008B2B99F08091730490917404A091750452
:10347000B09176040197A109B109809373049093E8
:103480007404A0937504B0937604809173049091B2
:103490007404A0917504B0917604892B8A2B8B2B30
:1034A00009F04AC08981882369F180910A029091CC
:1034B0000B02A0910C02B0910D02892B8A2B8B2B51
:1034C000D1F081E08093710480910A0290910B0207
:1034D000A0910C02B0910D02809373049093740438
:1034E000A0937504B093760484E090E0909369040F
:1034F0008093680421C010927104109269041092A4
:1035000068041AC082E090E0909369048093680494
:1035100013C01092710410927204109263041092FE
:1035200069041092680409C0000007C0000005C0CB
:10353000000003C0000001C0000000000F90DF91F8
:10354000CF910895CF93DF93CDB7DEB710926A0481
:1035500010926B0410926C0410926D0410926E0421
:1035600080916404909165049093700480936F043B
:1035700010927104109272041092730410927404E9
:1035800010927504109276041092690410926804E7
:1035900080E090E0DF91CF910895CF93DF9300D04A
:1035A000CDB7DEB79B838A838A819B81892B09F003
:1035B0005BC0209164043091650480916F04909108
:1035C000700441E02817390709F440E049838091ED
:1035D0006404909165049093700480936F048981D2
:1035E000882381F010927104109272041092730477
:1035F000109274041092750410927604109269046B
:10360000109268048091640490916504019761F5BB
:103610008091680490916904892B21F480910E02B5
:10362000882391F480916804909169040197E1F4F2
:103630008091730490917404A0917504B091760404
:103640000197A105B10581F41092730410927404DE
:10365000109275041092760410920E0282E090E0AF
:103660009093690480936804809164049091650448
:10367000019751F480914E0490914F042A813B812F
:103680002817390709F4F3DB8A819B81892B21F400
:1036900040DD1092780407C080917804882319F0E7
:1036A0008091770402C0809171040F900F900F9069
:1036B000DF91CF910895CF93DF93CDB7DEB710920E
:1036C0006A0410926B0410926C0410926D041092B4
:1036D0006E041092690410926804109270041092A3
:1036E0006F0410924F0410924E04109271041092C5
:1036F0007204109273041092740410927504109264
:10370000760410927704109278041092500410926C
:1037100051041092520410925304109254041092C7
:10372000550410925604109257041092580488EED3
:1037300093E0A0E0B0E080930A0290930B02A09384
:103740000C02B0930D021092590410925A04109278
:103750005B0410925C0410925D0410925E0410925F
:103760005F0410926004109262041092610481E080
:1037700080930E0210926304109265041092640408
:10378000109267041092660480E090E0DF91CF9180
:103790000895CF93DF93CDB7DEB780916404909105
:1037A0006504892B39F580910E02882359F08091A8
:1037B0006304882339F481E08093770481E0809367
:1037C000780418C080916304282F30E090910E0295
:1037D00081E0992309F080E0882F90E082239323F1
:1037E000892B31F01092770481E08093780402C035
:1037F000109278040000DF91CF910895CF93DF936A
:10380000CDB7DEB72C970FB6F894DEBF0FBECDBF95
:103810009E838D8378876F835A8749873C872B8760
:103820001A8219820E94C1439C838B838D819E8161
:10383000FC01808191810E949E468B859C8560E081
:1038400070E00E942A439C018F819885FC0131839E
:1038500020830E9410439C0189859A85FC01318355
:1038600020838F819885FC0180819181892BE1F0F3
:103870008F819885FC01208131818B819C81B901E8
:103880000E94F44A9C018D819E81FC01318320833A
:103890008D819E81FC0180819181892B49F486EF85
:1038A0009FEF9A83898304C088EF9FEF9A8389836F
:1038B00089819A812C960FB6F894DEBF0FBECDBFDA
:1038C000DF91CF910895CF93DF9300D000D0CDB793
:1038D000DEB79A8389837C836B835E834D83898182
:1038E0009A81892B21F089819A810E949E468D813F
:1038F0009E81FC011182108280E090E026960FB636
:10390000F894DEBF0FBECDBFDF91CF910895CF9366
:10391000DF9300D000D0CDB7DEB79A8389837C8354
:103920006B835E834D838D819E8122E030E0FC01BC
:10393000318320838FEF9FEF26960FB6F894DEBF7A
:103940000FBECDBFDF91CF910895CF93DF9300D00D
:103950001F92CDB7DEB78B836C8385E090E09A83AE
:1039600089838B81813F18F01A82198229C08B814B
:10397000843E40F08B81813F28F481E090E09A837F
:1039800089831EC08B81833D18F08B81833E48F074
:103990008B81803C59F48C81882341F08C81833069
:1039A00028F482E090E09A8389830AC08B81883C66
:1039B00038F08B81833D20F483E090E09A83898303
:1039C00089819A810F900F900F900F90DF91CF9186
:1039D0000895CF93DF93CDB7DEB767970FB6F8940E
:1039E000DEBF0FBECDBF998B888B7B8B6A8B5D8BC7
:1039F0004C8B3F8B2E8B888999899C838B838B8101
:103A00009C81FC0180818D8319828D81803C49F4E9
:103A10008A899B89029728F08B819C81FC01818196
:103A2000898380917A0490917B04892B09F455C095
:103A300069818D818ADF9B878A871A828A859B8527
:103A40000597C1F18A859B85880F991F80589B4FE8
:103A5000FC01808191819D878C871F861E868C85C5
:103A60009D85892B39F18D81882F90E02C853D85AE
:103A7000F90119959F878E8721E08E859F85892B77
:103A800009F420E02A838A818823A1F08E859F850E
:103A9000FC01228133818C899D89FC013183208343
:103AA0008E859F85FC01248135818E899F89FC014B
:103AB000318320838A81882309F053C08C899D89B2
:103AC00027E83CE1FC01318320838E899F892AE12C
:103AD0003EE1FC013183208344C08D818F3FA9F5F5
:103AE00080918004909181049F838E838C899D892D
:103AF000FC01118210828E899F89FC011182108243
:103B00008E819F81892B69F12E813F818FEF90E01B
:103B1000F90119959987888788859985892B09F1F5
:103B200088859985FC01228133818C899D89FC01DE
:103B30003183208388859985FC01248135818E8994
:103B40009F89FC01318320830CC08C899D8923E6E9
:103B50003CE1FC01318320838E899F89FC01118225
:103B60001082000067960FB6F894DEBF0FBECDBF7F
:103B7000DF91CF910895CF93DF93CDB7DEB78091DA
:103B80007A0490917B04DF91CF910895CF93DF93D6
:103B90001F921F92CDB7DEB79A83898389819A815C
:103BA00090937B0480937A0400000F900F90DF9134
:103BB000CF910895CF93DF93CDB7DEB780917C048A
:103BC000DF91CF910895CF93DF931F92CDB7DEB7EA
:103BD000898390917C048981892B80937C040000E7
:103BE0000F90DF91CF910895CF93DF931F92CDB7C0
:103BF000DEB789838981809590917C0489238093A5
:103C00007C0400000F90DF91CF910895CF93DF9354
:103C1000CDB7DEB780917D04DF91CF910895CF932A
:103C2000DF93CDB7DEB780917E0490917F04DF9162
:103C3000CF910895CF93DF9300D000D000D01F9292
:103C4000CDB7DEB79E838D8378876F835A87498788
:103C50008D819E81892B51F48F8198859C838B83E4
:103C60008B819C812FEFFC0120838DC08F819885F3
:103C70009A83898389819A812EEFFC0120838D812B
:103C80009E81092E000CAA0BBB0B0F96A11DB11D26
:103C90008F309105A105B10508F06FC0FC018827A0
:103CA000EB5AF14E8F4F0C94B363B71EB11EAB1E8F
:103CB000A51E9F1E931E991E8D1E871E811E7C1E93
:103CC0006A1E641E701E761E89819A8120E3FC01A3
:103CD000218359C089819A8129E2FC01218353C043
:103CE00089819A8122E2FC0121834DC089819A81D8
:103CF00020E2FC01218347C089819A81FC01118265
:103D000042C089819A8123E2FC0121833CC08981E0
:103D10009A8121E2FC01218336C089819A8121E1C7
:103D2000FC01218330C089819A8127E2FC01218333
:103D30002AC089819A812AE2FC01218324C08981D9
:103D40009A8120E1FC0121831EC089819A8124E2AD
:103D5000FC01218318C089819A8128E2FC0121831A
:103D600012C089819A8126E2FC0121830CC08981DD
:103D70009A8121E3FC01218306C089819A8120E296
:103D8000FC01218300C000002A960FB6F894DEBF24
:103D90000FBECDBFDF91CF910895CF93DF9300D0B9
:103DA00000D000D01F92CDB7DEB79E838D83788779
:103DB0006F835A8749871A8219828F819885892B48
:103DC000D9F11C821B821C821B822BC02B813C815F
:103DD000C901880F991F820F931F880F991F9C019B
:103DE0008F819885820F931FFC01808191812D81A5
:103DF0003E812817390781F42B813C81C901880F46
:103E0000991F820F931F880F991F9C018F8198859E
:103E1000820F931F9A8389838B819C8101969C8357
:103E20008B832B813C8189859A852817390720F45B
:103E300089819A81892B51F289819A812A960FB6BC
:103E4000F894DEBF0FBECDBFDF91CF910895CF9321
:103E5000DF9300D01F92CDB7DEB79A8389837C832E
:103E60006B8380917904882319F084EF9FEF1BC046
:103E700049D554D590938104809380040E941936CB
:103E80000E94313690938504809384040E94023FFF
:103E90000E940D3F909383048093820481E080937D
:103EA000790480E090E00F900F900F900F90DF91D9
:103EB000CF910895EF92FF920F931F93CF93DF93CB
:103EC000CDB7DEB764970FB6F894DEBF0FBECDBF97
:103ED0001A8219821C821B8218861F821A861986F2
:103EE0001C861B861E861D86188A1F861E821D82C2
:103EF0001A8A198A1C8A1B8A80917904882319F4EA
:103F000087EF9FEFC3C0BE01635F7F4F9E01255FB8
:103F10003F4FAE01475F5F4FCE0107968B01BC015B
:103F200080E090E00E946E429A83898389819A8121
:103F3000892B49F089819A81049629F089819A8197
:103F4000059609F096C08F819885892B59F02B85AD
:103F50003C858D859E85280F391F89859A85821716
:103F6000930728F488EF9FEF9A83898385C02F8178
:103F700038858B859C85820F931F9E838D836D85ED
:103F80007E859E012D5E3F4FAE014F5E5F4F8D815E
:103F90009E811FDD89899A89892B29F484EF9FEFFF
:103FA0009A83898369C029893A896B857C858F8149
:103FB0009885AE01415F5F4FF90119959C838B8312
:103FC0008B899C89892B09F451C08F859889892B0D
:103FD00009F44CC01A8219822D853E858F859889F7
:103FE0002817390768F42F853889AE01455F5F4F80
:103FF000BE01675F7F4FCE01079600DC9A838983FD
:104000002D853E858D819E81A90160E070E00E9432
:10401000E16389819A81892B49F52F8138858B85C8
:104020009C85820F931F9E838D832B893C894F85AE
:1040300058896D817E818B819C81F90119956F85ED
:1040400078894B855C8529853A858F8198857B01A8
:104050008A01AC016FEF7FEF81E090E00E94174191
:104060009A83898389819A81892B29F489819A810C
:104070000DC0000001C000008F819885892B21F0C0
:104080008F8198850E949E4689819A8164960FB699
:10409000F894DEBF0FBECDBFDF91CF911F910F917E
:1040A000FF90EF900895CF93DF9300D000D01F9240
:1040B0001F92CDB7DEB79C838B834D835E836F8366
:1040C00078871A82198280917904882319F487EFFE
:1040D0009FEF10C08D819E81AF81B885EB81FC81FF
:1040E00020E0AC01BD01CF010E944D399A83898344
:1040F00089819A8128960FB6F894DEBF0FBECDBF96
:10410000DF91CF910895CF93DF93CDB7DEB7809144
:104110007A0490917B04DF91CF910895CF93DF9340
:10412000CDB7DEB70E942C3F0E947E3D16D448E0FA
:1041300050E060E070E080E894E00E94E16310925B
:10414000790480E090E0DF91CF910895CF93DF93E1
:1041500000D000D0CDB7DEB76B837C838D839E8388
:104160008B819C81AD81BE81BC01CD010E940B3A47
:104170009A83898389819A8126960FB6F894DEBF47
:104180000FBECDBFDF91CF910895CF93DF9300D0C5
:104190001F921F92CDB7DEB79D838C8381E0898308
:1041A0008C819D81298140E050E0BA010E944D3907
:1041B0009B838A838A819B810F900F900F900F9031
:1041C0000F90DF91CF910895CF93DF9300D01F928E
:1041D0001F92CDB7DEB78D8381E090E09A8389830B
:1041E0000E9481439C838B838D81282F30E08B81BB
:1041F0009C8149815A81BA010E947D63CB0141E0D3
:104200002817390708F040E0842F0F900F900F9087
:104210000F900F90DF91CF910895CF93DF9300D04F
:104220001F921F92CDB7DEB79C838B836D83A1D382
:104230009A83898380918D04482F50E029813A81A7
:104240008B819C81B9010E94D86300000F900F9070
:104250000F900F900F90DF91CF910895CF93DF9340
:10426000CDB7DEB72D970FB6F894DEBF0FBECDBF2A
:10427000998788877B876A875D874C871A8219822E
:10428000288539858A859B85820F931F9C838B8324
:104290008B819C819E838D831F820E94293C8F830A
:1042A0008F81882351F48C859D8522E030E0FC01CC
:1042B0003183208385EF9FEF2DC08D819E81FC018E
:1042C0008181882331F08D819E81FC018181813043
:1042D00019F481E090E002C080E090E08F838F814C
:1042E000882351F48C859D8522E030E0FC013183E8
:1042F00020838EEF9FEF0EC081E090E047DC1A82B2
:1043000019828C859D8528E030E0FC013183208373
:1043100089819A812D960FB6F894DEBF0FBECDBF6E
:10432000DF91CF910895CF93DF9300D000D01F92FB
:104330001F92CDB7DEB79C838B837E836D835887B6
:104340004F838B819C81892BA9F58D819E819A83D6
:10435000898389819A8148E050E060E070E00E94A2
:10436000E16389819A812FEFFC01208325E0898117
:104370009A81FC01218320E089819A81FC012283BA
:104380000E948143282F89819A81FC0123830E9406
:1043900078439C0189819A81FC013583248389813A
:1043A0009A8121E0FC01268389819A8121E0FC0128
:1043B000278308C04F8158852D813E818B819C8148
:1043C000B90138DC000028960FB6F894DEBF0FBEA6
:1043D000CDBFDF91CF910895CF93DF9300D000D070
:1043E0001F92CDB7DEB79B838A837D836C835F8307
:1043F0004E8381E089830E94293C898389818823B7
:1044000051F48E819F8122E030E0FC0131832083D2
:1044100085EF9FEF0CC080E090E0B8DB8E819F813C
:1044200021E030E0FC013183208380E090E027969A
:104430000FB6F894DEBF0FBECDBFDF91CF910895C8
:10444000CF93DF9300D000D0CDB7DEB79A838983B6
:104450007C836B835E834D838D819E8126E030E07B
:10446000FC013183208380E090E026960FB6F8941B
:10447000DEBF0FBECDBFDF91CF910895CF93DF9305
:1044800000D000D01F921F92CDB7DEB79C838B83E4
:104490007E836D8358874F838D819E819A83898324
:1044A00089819A8146E050E060E070E00E94E1631B
:1044B00089819A812FEFFC0120837CDB282F898161
:1044C0009A81FC012183A2DB282F89819A81FC013A
:1044D0002283A5DB9C0189819A81FC013583248399
:1044E000000028960FB6F894DEBF0FBECDBFDF9157
:1044F000CF910895CF93DF9300D000D01F92CDB716
:10450000DEB79B838A837D836C835F834E831982AE
:104510000E940C3C89838981882321F00E94A64354
:104520000E941D3C8E819F8122E030E0FC0131839E
:1045300020838BEF9FEF27960FB6F894DEBF0FBE58
:10454000CDBFDF91CF910895CF93DF93CDB7DEB785
:104550002D970FB6F894DEBF0FBECDBF9987888721
:104560007B876A875D874C871A82198228853985FF
:104570008A859B85820F931F9C838B838B819C8173
:104580009E838D831F828D819E81FC0123818D817D
:104590009E81FC0184819581A681B781422FBC0157
:1045A000CD01F6D18F838F81882351F48C859D8531
:1045B00022E030E0FC013183208384EF9FEF09C0CB
:1045C0008C859D8521E030E0FC0131832083898149
:1045D0009A812D960FB6F894DEBF0FBECDBFDF9146
:1045E000CF910895CF93DF93CDB7DEB72F970FB656
:1045F000F894DEBF0FBECDBF9B878A877D876C870F
:104600005F874E871A8219822A853B858C859D8516
:10461000820F931F9C838B838B819C819E838D83D0
:104620001F82A7D1998788878D819E81FC01818116
:10463000CBDD8F838F81882351F48E859F8522E087
:1046400030E0FC01318320838EEF9FEF22C088850C
:104650009985892B51F48E859F8522E030E0FC01FD
:104660003183208384EF9FEF14C08D819E81FC01F4
:10467000818180938D0480918D04882F90E09C012E
:104680002F5F3F4F8E859F85FC0131832083898179
:104690009A812F960FB6F894DEBF0FBECDBFDF9183
:1046A000CF910895CF93DF93CDB7DEB72D970FB697
:1046B000F894DEBF0FBECDBF998788877B876A8756
:1046C0005D874C8788859985892B91F552D19A838E
:1046D00089838A859B859C838B838B819C8141E028
:1046E00050E060E070E00E94E1638B819C812FEFDD
:1046F000FC01208389819A81892B11F180918D049D
:10470000882F90E001962C853D8528173907C1F444
:104710008A859B8501969E838D831F828D819E81D4
:104720006F817BDD80918D0464D110928D0408C06F
:104730004C855D852A853B8588859985B9017ADA1E
:1047400000002D960FB6F894DEBF0FBECDBFDF91EF
:10475000CF910895CF93DF93CDB7DEB72D970FB6E6
:10476000F894DEBF0FBECDBF998788877B876A87A5
:104770005D874C871A821982288539858A859B85B1
:10478000820F931F9C838B838B819C819E838D835F
:104790001F828D819E81FC01818116DD8F838F8137
:1047A000882351F48C859D8522E030E0FC01318323
:1047B00020838EEF9FEF31C08D819E81FC0123818C
:1047C0008D819E81FC0184819581A681B781422FD4
:1047D000BC01CD01DDD08F838F81882351F48C857E
:1047E0009D8522E030E0FC013183208384EF9FEF40
:1047F00014C08D819E81FC01818180938D04809104
:104800008D04882F90E09C012F5F3F4F8C859D8504
:10481000FC013183208389819A812D960FB6F8940B
:10482000DEBF0FBECDBFDF91CF910895CF93DF9351
:10483000CDB7DEB72D970FB6F894DEBF0FBECDBF54
:10484000998788877B876A875D874C878885998564
:10485000892B91F58ED09A8389838A859B859C8349
:104860008B838B819C8141E050E060E070E00E948E
:10487000E1638B819C812FEFFC01208389819A81E8
:10488000892B11F180918D04882F90E001962C8561
:104890003D8528173907C1F48A859B8501969E833B
:1048A0008D831F828D819E816F81B7DC80918D0405
:1048B000A0D010928D0408C04C855D852A853B856B
:1048C00088859985B901B6D900002D960FB6F89460
:1048D000DEBF0FBECDBFDF91CF910895CF93DF93A1
:1048E0001F921F92CDB7DEB79A83898389819A81FF
:1048F00047E050E066E572E050DA0F900F90DF91EC
:10490000CF910895CF93DF93CDB7DEB78EE694E2D3
:1049100010D093D00000DF91CF910895CF93DF9313
:10492000CDB7DEB780918E0490918F04DF91CF9147
:104930000895CF93DF931F921F92CDB7DEB79A836E
:10494000898389819A8190938F0480938E040000DB
:104950000F900F90DF91CF910895CF93DF93CDB754
:10496000DEB773D080E090E0E4DF0000DF91CF910C
:104970000895CF93DF93CDB7DEB7809188049091EF
:104980008904A0918A04B0918B04DF91CF9108959E
:10499000CF93DF9300D01F921F92CDB7DEB769830C
:1049A0007A838B839C834D838D81882351F4898105
:1049B0009A81AB81BC81892B8A2B8B2B11F480E0EF
:1049C00010C089819A81AB81BC81809388049093C7
:1049D0008904A0938A04B0938B048D8180938C0406
:1049E00081E00F900F900F900F900F90DF91CF917B
:1049F0000895CF93DF931F92CDB7DEB789832091BF
:104A000088043091890440918A0450918B048981F3
:104A1000882F90E0A0E0B0E0820F931FA41FB51F85
:104A20008093880490938904A0938A04B0938B04A4
:104A300000000F90DF91CF910895CF93DF93CDB712
:104A4000DEB70000DF91CF910895CF93DF93CDB70C
:104A5000DEB70000DF91CF910895CF93DF9300D0B0
:104A6000CDB7DEB79B838A831982F8948091960430
:104A70009091970421E0892B09F020E02983898116
:104A8000882309F4789489810F900F900F90DF911B
:104A9000CF910895CF93DF931F921F92CDB7DEB7CA
:104AA0009A838983789400000F900F90DF91CF91C3
:104AB0000895CF93DF931F921F92CDB7DEB79A83ED
:104AC0008983F8948091960490919704019690932D
:104AD000970480939604789400000F900F90DF91D4
:104AE000CF910895CF93DF931F921F92CDB7DEB77A
:104AF0009A838983F8948091960490919704019702
:104B00009093970480939604789400000F900F90F0
:104B1000DF91CF910895CF93DF931F921F92CDB76E
:104B2000DEB79A8389832091900430919104498162
:104B30005A8163E1649FC001659F900D1124820F2B
:104B4000931FFC0183819481029799F02091900436
:104B50003091910449815A8163E1649FC001659F4E
:104B6000900D1124820F931FFC0183819481039780
:104B700019F481E090E002C080E090E00F900F9087
:104B8000DF91CF910895CF93DF9300D0CDB7DEB7FB
:104B900019821B821A821B821A8209C08A819B8118
:104BA000BADF89838A819B8101969B838A83809166
:104BB0009204909193042A813B812817390718F4B5
:104BC0008981882359F381E09981992309F080E054
:104BD0000F900F900F90DF91CF910895CF93DF93B7
:104BE00000D01F921F92CDB7DEB79B838A836C8360
:104BF0004D838091900490919104892B09F477C0A2
:104C000080919204909193042A813B81281739075F
:104C100008F06DC020919004309191044A815B812D
:104C200063E1649FC001659F900D1124820F931F63
:104C3000FC0180819181892B09F459C02091900455
:104C4000309191044A815B8163E1649FC001659F5B
:104C5000900D1124820F931FFC0182819C81981773
:104C600008F045C020919004309191044A815B8105
:104C700063E1649FC001659F900D1124820F931F13
:104C8000FC01208131818C81482F50E06DE0649FD0
:104C9000C001659F900D1124820F931FFC0180813C
:104CA0009181892B21F120919004309191044A81C6
:104CB0005B8163E1649FC001659F900D1124820FA9
:104CC000931FFC01208131818C81482F50E06DE0E1
:104CD000649FC001659F900D1124820F931FFC01FA
:104CE00082819D81981718F481E090E002C080E0F5
:104CF00090E0898389810F900F900F900F900F9013
:104D0000DF91CF910895CF93DF9300D000D000D0F2
:104D1000CDB7DEB78C836D832E833F834887598759
:104D200019828D81882F90E09B838A838C818F3FAD
:104D300041F48A819B818F3F910509F010F481E055
:104D40008983898129960FB6F894DEBF0FBECDBF47
:104D5000DF91CF910895CF93DF931F92CDB7DEB748
:104D600089838981882F90E08F7E21E0892B09F04B
:104D700020E0822F0F90DF91CF910895CF93DF93A2
:104D80001F921F92CDB7DEB78A8319828A8188234A
:104D900031F08A81813019F08A81823011F481E00A
:104DA000898389810F900F90DF91CF910895CF93E0
:104DB000DF931F921F92CDB7DEB78A8319828A8153
:104DC000882331F08A81813019F08A81823011F490
:104DD00081E0898389810F900F90DF91CF910895B1
:104DE000CF93DF93CDB7DEB781E0DF91CF91089508
:104DF000CF93DF9300D0CDB7DEB79B838A8320911A
:104E00009004309191044A815B8163E1649FC00109
:104E1000659F900D1124820F931FFC0183858230C2
:104E2000D9F420919004309191044A815B8163E12F
:104E3000649FC001659F900D1124820F931FFC0198
:104E40002581368180911702909118022817390721
:104E500019F081E090E002C080E090E089838981D0
:104E6000882339F08A819B81892B19F481E090E0B5
:104E700002C080E090E0898389810F900F900F90AD
:104E8000DF91CF910895CF93DF9300D000D01F9290
:104E9000CDB7DEB79E838D836F838D819E81FC01AC
:104EA000208131818F81482F50E06DE0649FC001E7
:104EB000659F900D1124820F931F9C838B838B81A0
:104EC0009C81FC01438154818D819E81FC0125855B
:104ED0003685429FC001439F900D529F900D112433
:104EE00001969A8389838F81882379F48D819E81AD
:104EF000FC018781882F90E080719927892B29F008
:104F000089819A8104969A83898389819A812796D7
:104F10000FB6F894DEBF0FBECDBFDF91CF910895DD
:104F2000CF93DF9300D000D000D01F921F92CDB757
:104F3000DEB79B878A871D821C821A8219821B8298
:104F40001B821EC08A859B856B819DDF9F838E831C
:104F5000198618868E819F8161E070E00E942A4345
:104F6000998788872885398589819A81821793074F
:104F700020F4888599859A8389838B818F5F8B83C1
:104F80008A859B85FC0182819B819817D8F28A854E
:104F90009B85AC014F5E5F4F8A859B85FC018281BA
:104FA000282F30E0C901880F991F820F931F9C01A1
:104FB00089819A81B9010E949D479D838C838C8150
:104FC0009D81892B39F08A859B852FEF3FEFFC016E
:104FD000328B218B8C819D812B960FB6F894DEBF8E
:104FE0000FBECDBFDF91CF910895CF93DF931F9276
:104FF0001F92CDB7DEB79A83898389819A81FC019C
:1050000081899289019639F089819A81FC0181898F
:1050100092890E943F4989819A812FEF3FEFFC01DD
:10502000328B218B00000F900F90DF91CF9108956C
:10503000CF93DF93CDB7DEB761970FB6F894DEBF9D
:105040000FBECDBF9D878C877F876E87598B488B1E
:105050001A8219822C853D858E859F85820F931F2C
:105060009C838B838B819C819E838D838D819E818C
:10507000FC018281938198878F838D819E81FC01C1
:10508000848189878D819E81FC0185818A871B8629
:105090008F8198854A856985A1DD8B878B858823DB
:1050A00051F48889998922E030E0FC013183208322
:1050B0008EEF9FEF2BC08F8198852DDD982F81E09B
:1050C000992309F080E08B878B85882351F48889A8
:1050D000998922E030E0FC013183208388EF9FEF43
:1050E00015C08F819885909314028093130289854F
:1050F000809315028A85809316028889998921E018
:1051000030E0FC013183208389819A8161960FB65A
:10511000F894DEBF0FBECDBFDF91CF910895CF933E
:10512000DF93CDB7DEB763970FB6F894DEBF0FBE3F
:10513000CDBF9F878E87798B688B5B8B4A8B1A825A
:1051400019822E853F8588899989820F931F9C83B8
:105150008B838B819C819E838D83809113029091A0
:10516000140298878F838091150289878091160297
:105170008A871C861B861D868F8198854A8569854E
:105180002DDD8D878D85882351F48A899B8922E0C6
:1051900030E0FC01318320838AEF9FEF9AC08F813A
:1051A0009885B9DC982F81E0992309F080E08D87FC
:1051B0008D85882351F48A899B8922E030E0FC01A7
:1051C0003183208388EF9FEF84C08D819E81FC0115
:1051D00084819581A681B7812D813E81F90162810B
:1051E0002D813E81F90171819C01AD01872F8BDDFD
:1051F0008D878D85882351F48A899B8922E030E050
:10520000FC01318320838EEF9FEF63C020919004D7
:10521000309191044F81588563E1649FC001659F7F
:10522000900D1124820F931FFC012081318189850B
:10523000482F50E06DE0649FC001659F900D1124E0
:10524000820F931FFC01408151818A85282F30E015
:10525000C901880F991F880F991F880F991F821BFA
:10526000930B840F951F9C878B878D819E81FC01FA
:1052700021818B859C85FC0120838D819E81FC0191
:1052800022818B859C85FC0121838D819E81FC017F
:1052900023818B859C85FC0122838D819E81FC016D
:1052A00084819581A681B7812B853C85F901838313
:1052B0009483A583B683809116028F5F8093160234
:1052C0008A899B8921E030E0FC0131832083898138
:1052D0009A8163960FB6F894DEBF0FBECDBFDF9103
:1052E000CF910895CF93DF93CDB7DEB72F970FB649
:1052F000F894DEBF0FBECDBF9B878A877D876C8702
:105300005F874E871A8219822A853B858C859D8509
:10531000820F931F9C838B838B819C819E838D83C3
:1053200018861F8219868091900490919104892B90
:1053300079F08D819E81FC012281338180919204DC
:10534000909193042817390718F481E090E002C087
:1053500080E090E089878985882351F48E859F8538
:1053600022E030E0FC01318320838EEF9FEFA3C069
:1053700020919004309191048D819E81FC014281A5
:10538000538163E1649FC001659F900D1124820FDA
:10539000931F98878F838D819E81FC0182819381E9
:1053A000BADB982F81E0992309F080E0898789850D
:1053B000882351F48E859F8522E030E0FC01318303
:1053C000208388EF9FEF77C08D819E81FC018481CF
:1053D000958121E08038910508F020E029878985B2
:1053E000882351F48E859F8522E030E0FC013183D3
:1053F00020838EEF9FEF5FC08D819E81FC0197819E
:1054000081E0992309F080E089878985882351F418
:105410008E859F8522E030E0FC01318320838EEF72
:105420009FEF49C08D819E81FC01818194DC898739
:105430008985882351F48E859F8522E030E0FC0128
:105440003183208386EF9FEF36C08D819E81FC01E2
:1054500021818F819885FC0127838D819E81FC01AC
:10546000248135818F819885FC01368325838D8148
:105470009E81FC0126818F819885FC0120878D818A
:105480009E81FC0127818F819885FC0121878F8176
:105490009885FC018085823028F48F81988521E0F1
:1054A000FC0120878E859F8521E030E0FC0131835F
:1054B000208389819A812F960FB6F894DEBF0FBEA4
:1054C000CDBFDF91CF9108950F931F93CF93DF93BB
:1054D000CDB7DEB76C970FB6F894DEBF0FBECDBF69
:1054E000988F8F8B7A8F698F5C8F4B8F1B861A8674
:1054F0002F89388D898D9A8D820F931F9D878C8778
:105500008C859D859F878E87198A188A8E859F85B1
:10551000FC0182819381CC01A0E0B0E08A8B9B8B5F
:10552000AC8BBD8B19821E8A80919004909191045E
:10553000892B99F08091920490919304CC01A0E082
:10554000B0E02A893B894C895D89281739074A07C9
:105550005B071CF481E090E002C080E090E089836A
:105560008981882351F48B8D9C8D22E030E0FC01F1
:10557000318320838EEF9FEF40C28A899B89AC895B
:10558000BD8980930F0290931002A0931102B093F3
:10559000120220919004309191044A895B8963E161
:1055A000649FC001659F900D1124820F931F998BFA
:1055B000888B8E859F85FC018181E0DB89838981D1
:1055C000882351F48B8D9C8D22E030E0FC013183E7
:1055D000208386EF9FEF11C203DC882309F47DC08E
:1055E00088899989FC0183819481892B09F075C090
:1055F00088899989FC018781882F90E0827099279A
:10560000892B81F188899989FC0180819181892B7D
:1056100091F080919504282F30E088899989FC01C8
:105620008281882F90E0820F931F813891051CF4AE
:1056300081E090E002C080E090E089838981882346
:1056400009F43EC02091950488899989FC0122873C
:105650002091950488899989FC018281820F809329
:1056600095042EC088899989FC0180819181892BBC
:1056700091F080919404282F30E088899989FC0169
:105680008281882F90E0820F931F8D3F91051CF43B
:1056900081E090E002C080E090E0898389818823E6
:1056A00079F02091940488899989FC0122872091BE
:1056B000940488899989FC018281820F80939404E3
:1056C0008981882351F48B8D9C8D22E030E0FC0190
:1056D0003183208387EF9FEF90C18E859F85FC01EA
:1056E0008181813039F08E859F85FC0181818230F6
:1056F00009F0CBC01B821A8281E089831B821A8247
:10570000B5C01D821C821F821E821D821C822EC07B
:1057100088899989FC01208131814A815B816DE012
:10572000649FC001659F900D1124820F931FFC019F
:10573000408151812C813D81C901880F991F880FBB
:10574000991F880F991F821B930B840F951FFC01D3
:105750008181882F90E02E813F81820F931F9F834C
:105760008E838C819D8101969D838C838889998904
:10577000FC01208131814A815B816DE0649FC00121
:10578000659F900D1124820F931FFC018281882F49
:1057900090E02C813D81281739070CF4B9CF8A811C
:1057A0009B81892B21F588899989FC018781882F24
:1057B00090E080719927892BD1F088899989FC0123
:1057C000458556852E813F81429FC001439F900DA4
:1057D000529F900D11248C010B5F1F4F0E94784344
:1057E00021E08017910708F420E0298319C08889F7
:1057F0009989FC01458556852E813F81429FC001D4
:10580000439F900D529F900D11248C010F5F1F4FED
:105810000E94784321E08017910708F420E0298353
:105820008981882351F48B8D9C8D22E030E0FC012E
:105830003183208387EF9FEFE0C088899989FC013D
:10584000208131814A815B816DE0649FC001659F49
:10585000900D1124820F931F2E813F81FC01348310
:1058600023838A819B8101969B838A838889998976
:10587000FC018281882F90E02A813B81281739071B
:1058800024F48981882309F03CCF88899989FC0117
:1058900085819681E2D88E8B8E89882309F49EC0FB
:1058A000198618868E859F85FC018181882F90E05E
:1058B00081309105D1F08230910509F469C0892BBE
:1058C00009F071C08889998921E030E0FC013483B6
:1058D000238359D9882309F463C081E090E00E94B2
:1058E000C61D80E40E94F41D5BC088899989FC0173
:1058F000818992890196C9F588899989FC01258158
:10590000368180911702909118022817390799F46F
:1059100088899989AC014F5E5F4F20911B023091BD
:105920001C028091190290911A02B9010E94384A12
:10593000998788871AC08A899B89AC89BD8918167E
:1059400019061A061B068CF088899989FC01858145
:105950009681892B51F488899989E2DA9987888719
:1059600088899989FC01108A178688859985892BF1
:10597000C9F48889998923E030E0FC0134832383CA
:1059800082E090E00E94C61D80E40E94E31D0AC0F0
:105990008889998922E030E0FC013483238303C0A5
:1059A000000001C0000088899989FC0185819681E9
:1059B00071D88B8D9C8D22E030E0FC0131832083F7
:1059C00088859985892B51F08B8D9C8D22E030E064
:1059D000FC01318320838DEF9FEF0FC08E898823D8
:1059E00051F48B8D9C8D22E030E0FC0131832083CB
:1059F00085EF9FEF02C08A859B856C960FB6F89461
:105A0000DEBF0FBECDBFDF91CF911F910F910895E3
:105A1000CF93DF9300D000D01F921F92CDB7DEB797
:105A20009C838B837E836D8358874F838B819C817E
:105A3000892B29F58D819E819A83898389819A8119
:105A40002FEFFC01208320919004309191048091EC
:105A50000F0290911002A0911102B0911202AC01BC
:105A600063E1649FC001659F900D1124820F931F15
:105A7000FC01228589819A81FC01218309C04F8123
:105A800058852D813E818B819C81B9010E941A1E0F
:105A9000000028960FB6F894DEBF0FBECDBFDF9191
:105AA000CF910895CF93DF93CDB7DEB766970FB64A
:105AB000F894DEBF0FBECDBF9A8B898B7C8B6B8B2E
:105AC0005E8B4D8B18861F8229893A898B899C8928
:105AD000820F931F9A87898789859A859C878B87F0
