:1000000011C100000C94AB720C94DE720C9411734D
:100010000C9444730C9477730C94AA730C94DD7352
:100020000C9410740C94EA170C9465190C94091A2A
:100030002AC1000028C1000026C1000024C1000020
:1000400022C1000020C100001EC100001CC1000030
:100050001AC1000018C1000016C100000C944374BE
:1000600012C100000C94237E0C94537E0CC100003E
:100070000AC1000008C1000006C1000004C1000060
:1000800002C1000000C10000FEC00000FCC0000072
:100090000C94CA7E0C94FA7EF6C000000C942609DB
:1000A000F2C00000F0C00000EEC00000ECC0000094
:1000B000EAC00000E8C00000E6C00000E4C00000A4
:1000C000E2C00000E0C00000DEC000000C94717FC0
:1000D0000C94A17FD8C000000C9418800C94488028
:1000E000D2C00000084AD73B3BCE016E84BCBFFDA6
:1000F000C12F3D6C74319ABD56833DDA3D00C77FF8
:1001000011BED9E4BB4C3E916BAAAABE0000008090
:100110003F0000002100240027002A002D003000AD
:10012000330001010000040107010A010000220060
:10013000250028002B002E003100340002010000B1
:10014000050108010B010505050507050808080854
:10015000020202020A0A080804040404010101015F
:10016000010101010303030303030303040707075A
:100170000C0C0C0C0C0C0C0C0202020206060606FF
:10018000060606060B0B0B0B0B0B0B0B01021020CC
:1001900020080810204010204080020102010804BD
:1001A0000201010204081020408080402010080451
:1001B00002018004020180402010080402010804AA
:1001C00002010102040810204080010204081020EE
:1001D000408000000A0B02090C0D0E080703040101
:1001E000000000000000000000000000000000000F
:1001F00000000000000000000000000000001211DC
:1002000010000000000000000000000000000000DE
:1002100000000000000000006504E70FBE7E657F5F
:100220000C80B58011241FBECFEFD1E2DEBFCDBF61
:1002300000E00CBF13E0A0E0B2E0E2E0F3E001E098
:100240000BBF02C007900D92AA36B107D9F72AE07A
:10025000AAE6B3E001C01D92A93FB207E1F711E0A1
:10026000C2E1D1E000E006C021970109802FFE0124
:100270000E944A81CC30D10780E00807A9F70E948C
:10028000666D0C947F81BCCECF93DF9300D01F921C
:10029000CDB7DEB79A8389837C836B8389819A810A
:1002A0002B813C81FC013383228300000F900F904F
:1002B0000F900F90DF91CF910895CF93DF931F920E
:1002C0001F92CDB7DEB79A83898322E633E0898116
:1002D0009A81FC013183208389819A81FC011382F8
:1002E000128200000F900F90DF91CF910895CF936D
:1002F000DF931F921F92CDB7DEB79A83898380E088
:1003000090E00F900F90DF91CF910895CF93DF93FE
:100310001F921F92CDB7DEB79A83898300000F909A
:100320000F90DF91CF910895CF93DF931F921F928B
:10033000CDB7DEB79A83898389819A81BEDF2DEBA1
:1003400032E089819A81FC013183208329813A81BD
:1003500088EE93E0A0E0B0E0F90184839583A68362
:10036000B78300000F900F90DF91CF910895CF9346
:10037000DF931F921F92CDB7DEB79A83898389815D
:100380009A81D2DF2BEA32E089819A81FC013183A4
:10039000208300000F900F90DF91CF910895CF93AD
:1003A000DF931F921F92CDB7DEB79A838983109295
:1003B0008A0310928B031092AD031092AE0391D278
:1003C0008FE294E07ED582EE93E067D500000F9037
:1003D0000F90DF91CF910895CF92EF920F931F93DB
:1003E000CF93DF9300D000D000D01F921F92CDB7E3
:1003F000DEB79B838A836C834D830E831F8328879C
:100400003987EA86CB868A858823D9F18A819B81C0
:100410006C8193D08A85843010F083E08A878A8546
:100420009FEF980F9A8791E0882309F490E0992331
:1004300021F18A819B81FC0180819181FC012081D5
:1004400031818A85882F90E0AC01440F551F440FFD
:10045000551F440F551F8E819F81A885B98504C003
:10046000B695A795979587954A95D2F7482F8A8193
:100470009B81642FF9011995D2CF8A819B8160E01D
:1004800075D08D81813210F080E28D832B854D8176
:100490006AE673E08C8171D2898310928A03898124
:1004A00080938B0389812B960FB6F894DEBF0FBE25
:1004B000CDBFDF91CF911F910F91EF90CF90089515
:1004C000CF92EF920F931F93CF93DF9300D01F92A1
:1004D0001F92CDB7DEB79A8389836B834C832D83BC
:1004E00089819A81CD80E12C00E010E098014C8157
:1004F0006B8172DF0F900F900F900F900F90DF9134
:10050000CF911F910F91EF90CF900895CF93DF93EC
:1005100000D01F92CDB7DEB79A8389836B834C835B
:1005200089819A8121E04C816B81CADF0F900F9005
:100530000F900F90DF91CF910895CF93DF9300D06C
:10054000CDB7DEB79A8389836B8381E08093AF0355
:100550008B8180938C031092AD031092AE03000048
:100560000F900F900F90DF91CF9108950F93CF933D
:10057000DF9300D01F92CDB7DEB79B838A836C8355
:100580009091AE0380918C030C8121E0492F6DE89E
:1005900073E00FD389831092AD031092AE031092D3
:1005A000AF0389810F900F900F900F90DF91CF9143
:1005B0000F910895CF93DF931F921F92CDB7DEB7AF
:1005C0009A83898389819A8161E0D0DF0F900F90AF
:1005D000DF91CF910895CF93DF9300D0CDB7DEB7F1
:1005E0009A8389836B838091AF038823F9F080918C
:1005F000AE03803240F089819A8161E070E044DE90
:1006000080E090E019C08091AD03882F90E02B81AD
:1006100083579C4FFC0120838091AD038F5F8093B3
:10062000AD038091AD038093AE0304C0CE01039669
:1006300061E0EAD381E090E00F900F900F90DF919E
:10064000CF910895CF93DF9300D000D01F921F92D7
:10065000CDB7DEB79C838B837E836D8358874F83B2
:100660008091AF03882321F11A82198229813A816E
:100670008F8198852817390700F58B819C81FC01B3
:1006800080819181FC01208131814D815E81898150
:100690009A81840F951FFC0140818B819C81642F7E
:1006A000F901199589819A8101969A838983DECF10
:1006B0002F818D819E81622FA7D38F819885289667
:1006C0000FB6F894DEBF0FBECDBFDF91CF91089576
:1006D000CF93DF931F921F92CDB7DEB79A838983A2
:1006E00080918B03282F30E080918A03882F90E03F
:1006F000A901481B590BCA010F900F90DF91CF91B0
:100700000895CF93DF9300D01F92CDB7DEB79C83BF
:100710008B838FEF9FEF9A83898390918A038091D7
:100720008B03981788F480918A03882F90E086596C
:100730009C4FFC018081882F90E09A83898380916F
:100740008A038F5F80938A0389819A810F900F902B
:100750000F900F90DF91CF910895CF93DF9300D04A
:100760001F92CDB7DEB79C838B838FEF9FEF9A8369
:10077000898390918A0380918B03981760F480910C
:100780008A03882F90E086599C4FFC018081882F36
:1007900090E09A83898389819A810F900F900F90BE
:1007A0000F90DF91CF910895CF93DF931F921F9207
:1007B000CDB7DEB79A83898300000F900F90DF9149
:1007C000CF910895CF93DF9300D01F921F92CDB7A2
:1007D000DEB79B838A837D836C838091B203909183
:1007E000B303892B89F190918A0380918B03981729
:1007F00068F119828981882F90E02C813D818217D0
:100800009307A4F48981882F90E02A813B81280FE7
:10081000391F8981882F90E0F901208186599C4FEA
:10082000FC01208389818F5F8983E4CF10928A0342
:100830008C8180938B032091B2033091B3038C8120
:100840009D81F901199503C0000001C000000F90BF
:100850000F900F900F900F90DF91CF910895CF934D
:10086000DF93CDB7DEB78091B0039091B103892BB0
:1008700059F01092AD031092AE038091B0039091A5
:10088000B103FC01199501C00000DF91CF910895DB
:10089000CF93DF9300D01F92CDB7DEB79A838983C1
:1008A0007C836B8389819A81019739F48B819C8148
:1008B000019619F484EB93E05ADD00000F900F903D
:1008C0000F900F90DF91CF910895CF93DF93CDB725
:1008D000DEB76FEF7FEF81E090E0DADFDF91CF915D
:1008E0000895CF93DF93CDB7DEB71092C00381E0B8
:1008F0008093C2031092C30384E161E00E949B795C
:1009000085E161E00E949B7989EB90E0FC01208108
:1009100089EB90E02E7FFC01208389EB90E0FC01C5
:10092000208189EB90E02D7FFC01208388EB90E013
:1009300028E4FC0120838CEB90E025E4FC0120837B
:100940000000DF91CF910895CF93DF93CDB7DEB74D
:100950008CEB90E0FC0120818CEB90E02A7BFC0189
:10096000208384E160E00E949B7985E160E00E9441
:100970009B790000DF91CF910895CF93DF9300D052
:1009800000D000D01F92CDB7DEB78E8378876F83FB
:1009900049872A878985813210F080E001C10E9451
:1009A000E074DC01CB018A839B83AC83BD832AC0C6
:1009B0008091C4039091C503A091C603B091C70371
:1009C000892B8A2B8B2BF1F00E94E0749B01AC01E8
:1009D0008A819B81AC81BD81281B390B4A0B5B0B43
:1009E0008091C4039091C503A091C603B091C70341
:1009F00082179307A407B50728F48091C903FDD394
:100A000080E0CEC08091C003882391F681E080937E
:100A1000C0038A858093C2038FEF809333041092C2
:100A2000EE03898581508093EF0381E08093C103B9
:100A30008E81882F90E0880F991F982F8091C10395
:100A4000892B8093C1038091C303813009F04AC090
:100A50001092C3030E94E074DC01CB018A839B8364
:100A6000AC83BD838BEB90E02091C103FC0120831C
:100A70008091C4039091C503A091C603B091C703B0
:100A8000892B8A2B8B2BF1F00E94E0749B01AC0127
:100A90008A819B81AC81BD81281B390B4A0B5B0B82
:100AA0008091C4039091C503A091C603B091C70380
:100AB00082179307A407B50728F48091C9039DD333
:100AC00080E06EC08CEB90E0FC018081882F90E08C
:100AD00088709927892B31F68CEB90E025ECFC018E
:100AE000208305C08CEB90E025EEFC0120830E9462
:100AF000E074DC01CB018A839B83AC83BD832AC075
:100B00008091C4039091C503A091C603B091C7031F
:100B1000892B8A2B8B2BF1F00E94E0749B01AC0196
:100B20008A819B81AC81BD81281B390B4A0B5B0BF1
:100B30008091C4039091C503A091C603B091C703EF
:100B400082179307A407B50728F48091C90355D3EA
:100B500080E026C08091C003813091F28091EE0345
:100B60009985891718F48091EE038987198213C03B
:100B70008981282F30E08981882F90E04F81588526
:100B8000840F951F22533C4FF9012081FC012083E3
:100B900089818F5F898399818985981748F3898531
:100BA0002A960FB6F894DEBF0FBECDBFDF91CF916E
:100BB00008950F93CF93DF9300D000D000D01F9201
:100BC0001F92CDB7DEB78E8378876F8349872A87D8
:100BD0000B878985813210F081E00CC10E94E0749E
:100BE000DC01CB018A839B83AC83BD832AC08091C7
:100BF000C4039091C503A091C603B091C703892B8C
:100C00008A2B8B2BF1F00E94E0749B01AC018A814E
:100C10009B81AC81BD81281B390B4A0B5B0B8091FA
:100C2000C4039091C503A091C603B091C703821776
:100C30009307A407B50728F48091C903DED285E0A5
:100C4000D9C08091C003882391F682E08093C003CD
:100C50008B858093C2038FEF809333041092EE0351
:100C600089858093EF03198213C08981882F90E0D2
:100C70002F813885280F391F8981882F90E0F9014D
:100C8000208182539C4FFC01208389818F5F89835F
:100C900099818985981748F31092C1038E81882F16
:100CA00090E0880F991F982F8091C103892B809322
:100CB000C1038091C303813009F04AC01092C3037D
:100CC0000E94E074DC01CB018A839B83AC83BD83EB
:100CD0008BEB90E02091C103FC0120838091C40341
:100CE0009091C503A091C603B091C703892B8A2BAD
:100CF0008B2BF1F00E94E0749B01AC018A819B81F7
:100D0000AC81BD81281B390B4A0B5B0B8091C4035E
:100D10009091C503A091C603B091C70382179307B2
:100D2000A407B50728F48091C90367D285E062C0A3
:100D30008CEB90E0FC018081882F90E088709927EF
:100D4000892B31F68CEB90E025ECFC01208305C06B
:100D50008CEB90E025EEFC0120830E94E074DC0126
:100D6000CB018A839B83AC83BD832AC08091C4035B
:100D70009091C503A091C603B091C703892B8A2B1C
:100D80008B2BF1F00E94E0749B01AC018A819B8166
:100D9000AC81BD81281B390B4A0B5B0B8091C403CE
:100DA0009091C503A091C603B091C7038217930722
:100DB000A407B50728F48091C9031FD285E01AC0A3
:100DC0008A85882321F08091C003823079F2809156
:100DD00033048F3F11F480E00DC0809133048032E2
:100DE00011F482E007C080913304803311F483E072
:100DF00001C084E02B960FB6F894DEBF0FBECDBFC6
:100E0000DF91CF910F910895CF93DF9300D01F9280
:100E1000CDB7DEB79B838A836C8380911104282F22
:100E200030E08C81882F90E0820F931F819714F01F
:100E300081E02CC08091C003843011F082E026C094
:100E4000198219C08981882F90E02A813B81280F5F
:100E5000391F80911104482F50E08981882F90E03C
:100E6000840F951FF901208180519C4FFC01208344
:100E700089818F5F898399818C81981718F390916C
:100E800011048C81890F8093110480E00F900F90E2
:100E90000F900F90DF91CF910895CF93DF931F9222
:100EA0001F92CDB7DEB79A83898389819A81909307
:100EB000CD038093CC0300000F900F90DF91CF9172
:100EC0000895CF93DF931F921F92CDB7DEB79A8319
:100ED000898389819A819093CB038093CA03000010
:100EE0000F900F90DF91CF910895CF93DF931F92D2
:100EF000CDB7DEB789838981882331F08CEB90E010
:100F000025ECFC01208305C08CEB90E025E8FC017A
:100F1000208300000F90DF91CF910895CF93DF934E
:100F2000CDB7DEB7A5970FB6F894DEBF0FBECDBF25
:100F30008CEB90E025EDFC01208388E08D838D8192
:100F4000282F30E040E050E08091C4039091C50329
:100F5000A091C603B091C703820F931FA41FB51FB2
:100F60000197A109B1092D81222F30E040E050E026
:100F7000BC01CD010E942881DA01C90189839A83CD
:100F8000AB83BC8315C18091C4039091C503A0912C
:100F9000C603B091C703892B8A2B8B2B09F408C198
:100FA00089819A81AB81BC81892B8A2B8B2B09F497
:100FB000FBC080E090E0A0E2B1E48E839F83A8872D
:100FC000B9872BEA3AEA4AEA50E46E817F81888544
:100FD00099850E941E71DC01CB018A879B87AC87B3
:100FE000BD8720E030E040E850E46E817F81888555
:100FF00099850E941E71DC01CB018E879F87A88B8B
:10100000B98B20E030E040E85FE36A857B858C8522
:101010009D850E94FE6E88231CF481E08A8BB2C0FD
:1010200020E03FEF4FE757E46E857F8588899989F7
:101030000E94137118160CF07BC020E030E04AE7E4
:1010400054E46E817F81888599850E94026FDC015E
:10105000CB018B8B9C8BAD8BBE8B20E030E04AE7C5
:1010600055E46B897C898D899E890E941E71DC0103
:10107000CB018F8B988FA98FBA8F20E030E040E8AA
:101080005FE36F89788D898D9A8D0E94FE6E88232B
:101090002CF481E090E09C8F8B8F3FC020E03FEFED
:1010A0004FE757E46F89788D898D9A8D0E9413716F
:1010B00018164CF520E030E040E251E46B897C8961
:1010C0008D899E890E941E71DC01CB01BC01CD017E
:1010D0000E946F6FDC01CB019C8F8B8F0FC080E96A
:1010E00091E09E8F8D8F8D8D9E8D0197F1F79E8F54
:1010F0008D8F8B8D9C8D01979C8F8B8F8B8D9C8D75
:10110000892B69F73FC06F89788D898D9A8D0E94F0
:101110006F6FDC01CB019C8F8B8F8B8D9C8D98A387
:101120008F8F8F8D98A10197F1F798A38F8F2AC089
:1011300020E030E04FE753E46A857B858C859D8510
:101140000E9413711816ACF46E857F858889998981
:101150000E946F6FDC01CB019AA389A389A19AA198
:101160009CA38BA38BA19CA10197F1F79CA38BA3BC
:101170000FC06A857B858C859D850E946F6FDC0121
:10118000CB018A8B8A898DA38DA18A95F1F78DA3D6
:1011900089819A81AB81BC810197A109B1098983B9
:1011A0009A83AB83BC8304C08091C90326D00DC051
:1011B0008CEB90E0FC018081882F90E08071992772
:1011C000892B09F0E0CE1092C003A5960FB6F894D3
:1011D000DEBF0FBECDBFDF91CF910895CF93DF93D8
:1011E000CDB7DEB78CEB90E025ECFC0120831092AC
:1011F000C0030000DF91CF910895CF93DF9300D01B
:10120000CDB7DEB78B8381E08093C8038B818823C1
:10121000B1F088EB90E0FC01808189838AEB90E05B
:10122000FC0180818A8390DB5CDB8AEB90E02A8181
:10123000FC01208388EB90E02981FC0120830000E1
:101240000F900F900F90DF91CF9108951F920F9202
:101250000FB60F9211240BB60F922F933F934F931B
:101260005F936F937F938F939F93AF93BF93EF930E
:10127000FF93CF93DF93CDB7DEB789EB90E0FC010E
:101280008081882F90E0887F9927092E000CAA0B77
:10129000BB0B893F9105A105B10508F0FFC1FC0119
:1012A0008827EA5AF64F8F4F0C944A81490B4E0B10
:1012B0004E0B4E0B4E0B4E0B4E0B4E0B4F0A4E0B66
:1012C0004E0B4E0B4E0B4E0B4E0B4E0B4F0A4E0B56
:1012D0004E0B4E0B4E0B4E0B4E0B4E0B580A4E0B3D
:1012E0004E0B4E0B4E0B4E0B4E0B4E0B820A4E0B03
:1012F0004E0B4E0B4E0B4E0B4E0B4E0B580A4E0B1D
:101300004E0B4E0B4E0B4E0B4E0B4E0B870A4E0BDD
:101310004E0B4E0B4E0B4E0B4E0B4E0B8C0A4E0BC8
:101320004E0B4E0B4E0B4E0B4E0B4E0BA10A4E0BA3
:101330004E0B4E0B4E0B4E0B4E0B4E0BCE0A4E0B66
:101340004E0B4E0B4E0B4E0B4E0B4E0B910A4E0B93
:101350004E0B4E0B4E0B4E0B4E0B4E0BAD0A4E0B67
:101360004E0B4E0B4E0B4E0B4E0B4E0BD00A4E0B34
:101370004E0B4E0B4E0B4E0B4E0B4E0BD00A4E0B24
:101380004E0B4E0B4E0B4E0B4E0B4E0BD00A4E0B14
:101390004E0B4E0B4E0B4E0B4E0B4E0BD00A4E0B04
:1013A0004E0B4E0B4E0B4E0B4E0B4E0BD80A4E0BEC
:1013B0004E0B4E0B4E0B4E0B4E0B4E0B0F0B4E0BA4
:1013C0004E0B4E0B4E0B4E0B4E0B4E0BD80A4E0BCC
:1013D0004E0B4E0B4E0B4E0B4E0B4E0B0F0B4E0B84
:1013E0004E0B4E0B4E0B4E0B4E0B4E0BF20A4E0B92
:1013F0004E0B4E0B4E0B4E0B4E0B4E0B120B4E0B61
:101400004E0B4E0B4E0B4E0B4E0B4E0B120B4E0B50
:101410004E0B4E0B4E0B4E0B4E0B4E0B280B4E0B2A
:101420004E0B4E0B4E0B4E0B4E0B4E0B440B4E0BFE
:101430004E0B4E0B4E0B4E0B4E0B4E0B440B4E0BEE
:101440004E0B4E0B4E0B4E0B4E0B4E0B4E0B4E0BD4
:101450004E0B4E0B4E0B4E0B4E0B4E0B4E0B4E0BC4
:101460004E0B4E0B4E0B4E0B4E0B4E0B4E0B4E0BB4
:101470004E0B4E0B4E0B4E0B4E0B4E0B4E0B4E0BA4
:101480004E0B4E0B4E0B4E0B4E0B4E0B4E0B4E0B94
:101490004E0B4E0B4E0B4E0B4E0B4E0B4D0B8BEB68
:1014A00090E02091C103FC01208381E01EDDF6C0A5
:1014B0009091EE038091EF03981798F48091EE03DA
:1014C00091E0980F9093EE03282F30E08BEB90E0A3
:1014D00022533C4FF9012081FC01208381E005DD8E
:1014E000DDC08091C203882311F018DDD7C081E0F0
:1014F0008093C3038CEB90E024EAFC0120831092DC
:10150000C003CCC080E28093330408DDC7C080E311
:101510008093330403DDC2C088E3809333045EDE2E
:10152000BDC02BEB30E08091EE0391E0980F9093DB
:10153000EE03882F90E0F901208182539C4FFC013B
:1015400020839091EE038091EF03981718F481E0C7
:10155000CCDCA4C080E0C9DCA1C02BEB30E08091E2
:10156000EE0391E0980F9093EE03882F90E0F9013D
:10157000208182539C4FFC0120838091C2038823E9
:1015800011F0CCDC8BC081E08093C3038CEB90E046
:1015900024EAFC0120831092C00380C0BFDC7EC01F
:1015A00083E08093C0031092320481E09EDC76C019
:1015B00080913204803298F42BEB30E08091320439
:1015C00091E0980F90933204882F90E0F9012081E8
:1015D0008E5E9B4FFC01208381E087DC5FC080E052
:1015E00084DC5CC0FBDD80913204803240F4809169
:1015F0003204882F90E08E5E9B4FFC011082209178
:10160000CC033091CD0380913204882F90E0BC014F
:1016100082E194E0F9011995109232043FC080E014
:1016200064DC3CC084E08093C003109210041092EC
:1016300011048091CA039091CB03FC01199580910C
:101640001104882329F481E0809311041092F0039F
:101650008091100491E0980F90931004282F30E0AF
:101660008BEB90E020513C4FF9012081FC0120835D
:101670009091100480911104981718F481E035DCE2
:101680000DC080E032DC0AC081E02FDC1092C00384
:1016900005C01092330442DC01C000000000DF915D
:1016A000CF91FF91EF91BF91AF919F918F917F91DA
:1016B0006F915F914F913F912F910F900BBE0F90C3
:1016C0000FBE0F901F9018950F931F93CF93DF932A
:1016D00000D000D0CDB7DEB789836A835C834B83AB
:1016E0003E832D832D813E818B819C8189019C01CC
:1016F00041E06A8189810BD026960FB6F894DEBF4F
:101700000FBECDBFDF91CF911F910F9108950F9321
:101710001F93CF93DF93CDB7DEB72D970FB6F89415
:10172000DEBF0FBECDBF8F83688749873B872A877F
:101730001D870C8719820E94B474DC01CB018B8356
:101740009C83AD83BE831A829A818985981708F09D
:101750006DC06F8184EB93E00E949D02688584EBED
:1017600093E00E94EB0284EB93E00E94DA026F8127
:1017700084EB93E00E949D028985282F30E08A81C6
:10178000882F90E0A901481B590BCA0181329105AD
:1017900014F080E290E0482F6F8184EB93E00E9488
:1017A000860284EB93E00E946803892BE1F08C852C
:1017B0009D85892BB1F00E94B4749B01AC018B8193
:1017C0009C81AD81BE81281B390B4A0B5B0B8C853C
:1017D0009D85CC01A0E0B0E0281739074A075B07D8
:1017E00010F481E001C080E08823A1F084EB93E055
:1017F0000E948103AC018981082E000C990B2A8577
:101800003B85820F931F242FFC01208389818F5FEA
:101810008983C7CF84EB93E00E94DA028985813205
:1018200008F080E29A81890F8A838ECF8C859D850E
:10183000892B11F10E94B4749B01AC018B819C81B6
:10184000AD81BE81281B390B4A0B5B0B8C859D85B6
:10185000CC01A0E0B0E0281739074A075B0760F029
:101860008981282F880F330B8985882F90E02817CE
:10187000390714F481E001C080E0882311F08FEF74
:10188000898389812D960FB6F894DEBF0FBECDBF38
:10189000DF91CF911F910F910895CF93DF9300D0E7
:1018A0001F921F92CDB7DEB78A836B834C832D8343
:1018B00080910002909101029C01CE010196AC0141
:1018C0006B818A8101DF8D81882371F08C81282FC3
:1018D00030E081E090E002C0880F991F2A95E2F77E
:1018E000982F8981892B0DC08C81282F30E081E0D1
:1018F00090E002C0880F991F2A95E2F780959981A0
:10190000892389838981482F6B818A8177D00F90C1
:101910000F900F900F900F90DF91CF9108950F933C
:10192000CF93DF9300D000D01F92CDB7DEB78B836B
:101930006C834D832E830F8320910002309101022E
:10194000CE010296AC016C818B81BEDE982F81E0C6
:10195000992309F480E0882309F445C08E81282F5B
:1019600030E081E090E002C0880F991F2A95E2F7ED
:1019700001972D81422F50E02E81222F30E0BA01B5
:10198000621B730B9B012F5F3F4F02C0880F991F93
:101990002A95E2F789838F81882F90E02D81422F4D
:1019A00050E02E81222F30E0BA01621B730B9B01A5
:1019B0002F5F3F4F02C0880F991F2A95E2F78F8350
:1019C0009F81898189238F83898180959A81892349
:1019D0008A839A818F81892B8A838A81482F6C819F
:1019E0008B810CD001C080E027960FB6F894DEBF43
:1019F0000FBECDBFDF91CF910F910895CF93DF93AD
:101A000000D0CDB7DEB789836A834B83CE010396BE
:101A10009C0141E06A81898106D00F900F900F9060
:101A2000DF91CF910895CF93DF9300D000D01F9224
:101A3000CDB7DEB78B836C834D833F832E831A82B1
:101A40006B8184EB93E00E949D026C8184EB93E0B8
:101A50000E94EB02198299818D81981790F48981F7
:101A6000882F90E02E813F81820F931FFC0180819F
:101A7000682F84EB93E00E94EB0289818F5F89835A
:101A8000EACF84EB93E00E94DA028A8381E09A81B4
:101A9000992309F080E027960FB6F894DEBF0FBEB9
:101AA000CDBFDF91CF910895CF93DF931F921F9207
:101AB000CDB7DEB79A83898389819A8128E6FC01B4
:101AC000208300000F900F90DF91CF910895CF9366
:101AD000DF931F921F92CDB7DEB79A8389838981E6
:101AE0009A8161E0A3D189819A8160E028D08981BF
:101AF0009A8160E03ED089819A8160E080D10000C7
:101B00000F900F90DF91CF9108950F93CF93DF93B4
:101B100000D0CDB7DEB79A8389836B8389819A81A0
:101B2000FC0180810B8123E042E06AE1F8DE0000E5
:101B30000F900F900F90DF91CF910F9108950F9319
:101B4000CF93DF9300D0CDB7DEB79A8389836B83C1
:101B500089819A81FC0180810B8122E044E06BE164
:101B6000DEDE00000F900F900F90DF91CF910F916C
:101B700008950F93CF93DF9300D0CDB7DEB79A834C
:101B800089836B8389819A81FC0180810B8122E0AA
:101B900044E06CE1C4DE00000F900F900F90DF91E5
:101BA000CF910F9108950F931F93CF93DF931F92BF
:101BB0001F92CDB7DEB79A8389834091000250917E
:101BC000010289819A819C012F5F3F4F89819A810F
:101BD000FC0180818A0142E06BE399DD89819A8171
:101BE000FC018181882F90E0382F222789819A81FA
:101BF000FC018281882F90E0822B932B0F900F9015
:101C0000DF91CF911F910F9108950F931F93CF9361
:101C1000DF931F921F92CDB7DEB79A8389834091DD
:101C200000025091010289819A819C012F5F3F4FF0
:101C300089819A81FC0180818A0142E06DE367DD40
:101C400089819A81FC018181882F90E0382F222799
:101C500089819A81FC018281882F90E0822B932BCD
:101C60000F900F90DF91CF911F910F9108950F93D7
:101C70001F93CF93DF931F921F92CDB7DEB79A8346
:101C80008983409100025091010289819A819C01CF
:101C90002F5F3F4F89819A81FC0180818A0142E058
:101CA0006FE335DD89819A81FC018181882F90E085
:101CB000382F222789819A81FC018281882F90E028
:101CC000822B932B0F900F90DF91CF911F910F914B
:101CD00008950F931F93CF93DF931F921F92CDB759
:101CE000DEB79A8389834091000250910102898175
:101CF0009A819C012F5F3F4F89819A81FC018081ED
:101D00008A0142E063E403DD89819A81FC018181DB
:101D1000882F90E0382F222789819A81FC018281C7
:101D2000882F90E0822B932B0F900F90DF91CF9113
:101D30001F910F9108950F931F93CF93DF931F92DD
:101D40001F92CDB7DEB79A838983409100025091EC
:101D5000010289819A819C012F5F3F4F89819A817D
:101D6000FC0180818A0142E065E4D1DC89819A81AD
:101D7000FC018181882F90E0382F222789819A8168
:101D8000FC018281882F90E0822B932B0F900F9083
:101D9000DF91CF911F910F9108950F931F93CF93D0
:101DA000DF931F921F92CDB7DEB79A83898340914C
:101DB00000025091010289819A819C012F5F3F4F5F
:101DC00089819A81FC0180818A0142E067E49FDC7D
:101DD00089819A81FC018181882F90E0382F222708
:101DE00089819A81FC018281882F90E0822B932B3C
:101DF0000F900F90DF91CF911F910F910895CF9386
:101E0000DF9300D0CDB7DEB79A8389836B832B81B4
:101E100089819A81FC01808146E06BE63EDD00000D
:101E20000F900F900F90DF91CF9108950F93CF9364
:101E3000DF9300D0CDB7DEB79A8389836B83898126
:101E40009A81FC0180810B8123E042E06BE667DD33
:101E500000000F900F900F90DF91CF910F91089598
:101E6000CF93DF93CDB7DEB784EB93E00E94CF0131
:101E700084E394E02CDE20E045E06AE688E60DDDB0
:101E800021E041E067E388E608DD20E046E06BE61C
:101E900088E603DD0000DF91CF9108950F931F9333
:101EA000CF93DF931F921F92CDB7DEB79A838983BA
:101EB00084E394E078DE9C0189819A81FC0131837E
:101EC000208389819A818C010E5F1F4F84E394E007
:101ED0009CDEF8019183808389819A818C010C5F5B
:101EE0001F4F84E394E0C3DEF801918380830000F8
:101EF0000F900F90DF91CF911F910F910895CF9385
:101F0000DF931F921F92CDB7DEB79A83898384EB4C
:101F100093E00E94CF018981682F84E394E0F5DD8E
:101F200084E394E0D4DD00000F900F90DF91CF9117
:101F300008950F931F93CF93DF931F921F92CDB7F6
:101F4000DEB79A83898384E394E0C3DE9C018981B0
:101F50009A81FC013183208389819A818C010E5FF3
:101F60001F4F84E394E0E7DEF80191838083898149
:101F70009A818C010C5F1F4F84E394E00EDFF8011F
:101F80009183808300000F900F90DF91CF911F917C
:101F90000F910895CF93DF9300D01F92CDB7DEB796
:101FA0009A8389837C836B8389819A81019739F431
:101FB0008B819C81019619F484E394E075DD000027
:101FC0000F900F900F900F90DF91CF910895CF93C6
:101FD000DF93CDB7DEB76FEF7FEF81E090E0DADF20
:101FE000DF91CF910895CF93DF931F921F92CDB7CA
:101FF000DEB789836A838A81882329F460E0898136
:102000000E94FC770CC08A81813029F461E08981CB
:102010000E94FC7704C062E089810E94FC77000086
:102020000F900F90DF91CF910895CF93DF931F9280
:102030001F92CDB7DEB789836A838A81882329F00E
:1020400061E089810E949B7904C060E089810E94DF
:102050009B7900000F900F90DF91CF910895EF9240
:10206000FF920F931F93CF93DF93CDB7DEB72C97DB
:102070000FB6F894DEBF0FBECDBF69837A838B8322
:102080009C832D833E834F835887E986FA860B878E
:102090001C87898161E00E94FC7789819A81019681
:1020A0009C0189819A81AB81BC81A901BC01CD01D0
:1020B000F8D020E030E0A90169857A858B859C8580
:1020C0000E9413711816BCF469857A858B859C85EE
:1020D0000E946F6FDC01CB018C016D817E818F814D
:1020E00098850E946F6FDC01CB019C0189819A81E8
:1020F000A801B90155D189819A8101962C960FB614
:10210000F894DEBF0FBECDBFDF91CF911F910F912D
:10211000FF90EF900895CF93DF9300D000D01F92EF
:10212000CDB7DEB79B838A834C835D836E837F83C9
:10213000CE010296FC0180818823B9F1CE0102967E
:10214000FC0180818150898320E030E0A9016C810D
:102150007D818E819F810E94FE6E8823D4F48C81C4
:102160009D81AE81BF81B0588C839D83AE83BF8338
:102170006C817D818E819F810E946F6F9B01AC017C
:102180008981882F90E0A0E0B0E0BC01CD01E7D0CC
:102190000CC06C817D818E819F810E946A6FDC0101
:1021A000CB01BC0189810E948276000027960FB680
:1021B000F894DEBF0FBECDBFDF91CF910895CF93CE
:1021C000DF9300D0CDB7DEB79B838A83CE01029622
:1021D000FC018081882389F01982CE010296FC01DE
:1021E0008081815089838981882F90E0A0E0B0E0D0
:1021F00040E050E0BC01CD0154D000000F900F90A2
:102200000F90DF91CF910895CF93DF9300D000D04E
:1022100000D0CDB7DEB76E837F83888799871C8215
:102220001B821A8219821D828E819F81A885B985A1
:10223000689412F8B695A795979587951694D1F757
:102240009C838B838E8187708D838B819C818D5B3A
:102250009B4FFC0140818D81282F30E081E090E090
:1022600002C0880F991F2A95E2F78423882F90E0F7
:102270009A83898389819A81892B31F08E819F810C
:1022800001969A83898302C01A82198289819A8170
:1022900029960FB6F894DEBF0FBECDBFDF91CF9168
:1022A0000895CF93DF9300D000D000D01F92CDB718
:1022B000DEB76D837E838F8398875A8749871A821A
:1022C00019821B821C828D819E81AF81B8856894A2
:1022D00012F8B695A795979587951694D1F79A8396
:1022E00089838D8187708B838B81282F30E081E0FB
:1022F00090E002C0880F991F2A95E2F78C838985A8
:102300009A85892B99F48C8180958C8389819A8117
:102310008D5B9B4FFC0190818C81292F2823898123
:102320009A818D5B9B4FFC0120830FC089819A812C
:102330008D5B9B4FFC0190818C81292F282B8981FB
:102340009A818D5B9B4FFC01208300002A960FB67B
:10235000F894DEBF0FBECDBFDF91CF910895CF932C
:10236000DF9300D000D01F921F92CDB7DEB76983F4
:102370007A838B839C832D833E834F8358878D8103
:102380009E812981BC01822F0E94827600002896BE
:102390000FB6F894DEBF0FBECDBFDF91CF91089589
:1023A000CF93DF9300D000D000D0CDB7DEB79D83B0
:1023B0008C837F836E83598748878C819D818E5261
:1023C0009E4F9A83898389819A81FC0184918B83B2
:1023D0008B81882F90E0092E000CAA0BBB0B019774
:1023E000A109B10982319105A105B10508F051C2D9
:1023F000FC018827E150FE4E8F4F0C944A81111248
:102400001B1225124F1279124914A312B912CF12BE
:10241000F91223134D137713A1134914CB13F5139A
:102420001F1484E490E0FC01208184E490E02068A3
:10243000FC0120832EC284E490E0FC01208184E42E
:1024400090E02062FC01208324C280E890E0FC013F
:102450008081282F2C7F80E890E02260FC0120837F
:1024600081E890E0FC018081982F907E8E81292F59
:10247000282B81E890E02061FC01208386E890E031
:1024800028853985FC013183208380E890E0FC01B8
:10249000208180E890E02068FC012083FAC180E878
:1024A00090E0FC018081282F2C7F80E890E0226062
:1024B000FC01208381E890E0FC018081982F907ED0
:1024C0008E81292F282B81E890E02061FC01208358
:1024D00086E890E028853985FC013183208380E8F7
:1024E00090E0FC01208180E890E02062FC012083E4
:1024F000D0C180E890E0FC018081282F2C7F80E80B
:1025000090E02260FC01208381E890E0FC01808162
:10251000982F907E8E81292F282B81E890E02061D2
:10252000FC01208386E890E028853985FC01318311
:10253000208380E890E0FC01208180E890E0286022
:10254000FC012083A6C180EB90E0FC01208180EBA0
:1025500090E02068FC01208381EB90E0FC01808109
:10256000382F387F2E8181EB90E0232BFC012083D4
:1025700090C180EB90E0FC01208180EB90E0206234
:10258000FC01208381EB90E0FC018081382F387FB3
:102590002E8181EB90E0232BFC0120837AC180E91E
:1025A00090E0FC018081282F2C7F80E990E0226060
:1025B000FC01208381E990E0FC018081982F907ECE
:1025C0008E81292F282B81E990E02061FC01208356
:1025D00086E990E028853985FC013183208380E9F4
:1025E00090E0FC01208180E990E02068FC012083DC
:1025F00050C180E990E0FC018081282F2C7F80E988
:1026000090E02260FC01208381E990E0FC01808160
:10261000982F907E8E81292F282B81E990E02061D0
:10262000FC01208386E990E028853985FC0131830F
:10263000208380E990E0FC01208180E990E0206225
:10264000FC01208326C180E990E0FC018081282FD5
:102650002C7F80E990E02260FC01208381E990E0FA
:10266000FC018081982F907E8E81292F282B81E973
:1026700090E02061FC01208386E990E0288539857F
:10268000FC013183208380E990E0FC01208180E916
:1026900090E02860FC012083FCC080EA90E0FC010F
:1026A0008081282F2C7F80EA90E02260FC0120832B
:1026B00081EA90E0FC018081982F907E8E81292F05
:1026C000282B81EA90E02061FC01208386EA90E0DB
:1026D00028853985FC013183208380EA90E0FC0164
:1026E000208180EA90E02068FC012083D2C080EA4B
:1026F00090E0FC018081282F2C7F80EA90E022600E
:10270000FC01208381EA90E0FC018081982F907E7B
:102710008E81292F282B81EA90E02061FC01208303
:1027200086EA90E028853985FC013183208380EAA0
:1027300090E0FC01208180EA90E02062FC0120838F
:10274000A8C080EA90E0FC018081282F2C7F80EADD
:1027500090E02260FC01208381EA90E0FC0180810E
:10276000982F907E8E81292F282B81EA90E020617E
:10277000FC01208386EA90E028853985FC013183BD
:10278000208380EA90E0FC01208180EA90E02860CC
:10279000FC0120837EC080E291E0FC018081282F33
:1027A0002C7F80E291E02260FC01208381E291E0B5
:1027B000FC018081982F907E8E81292F282B81E229
:1027C00091E02061FC01208386E291E02885398533
:1027D000FC013183208380E291E0FC01208180E2D2
:1027E00091E02068FC01208354C080E291E0FC016C
:1027F0008081282F2C7F80E291E02260FC012083E1
:1028000081E291E0FC018081982F907E8E81292FBA
:10281000282B81E291E02061FC01208386E291E097
:1028200028853985FC013183208380E291E0FC0119
:10283000208180E291E02062FC0120832AC080E2B6
:1028400091E0FC018081282F2C7F80E291E02260C2
:10285000FC01208381E291E0FC018081982F907E31
:102860008E81292F282B81E291E02061FC012083B9
:1028700086E291E028853985FC013183208380E25E
:1028800091E0FC01208180E291E02860FC0120833E
:1028900000008C8160E00E949B79000029960FB6B1
:1028A000F894DEBF0FBECDBFDF91CF910895CF93D7
:1028B000DF931F921F92CDB7DEB79A8389838981F8
:1028C0009A81092E000CAA0BBB0B0297A109B10932
:1028D00084319105A105B10508F033C0FC018827BA
:1028E000EB58FB4E8F4F0C944A8189148C14A11421
:1028F000A1149B149E14A114A114A114A114A11439
:10290000A114A114A114A114A11498149514921443
:102910008F1480E090E017C081E090E014C082E066
:1029200090E011C083E090E00EC084E090E00BC026
:1029300085E090E008C086E090E005C087E090E088
:1029400002C08FEF9FEF0F900F90DF91CF9108950E
:10295000CF93DF9300D000D0CDB7DEB78CE290E00C
:10296000FC018081882F90E09A83898389819A81F4
:102970008072992721E0892B09F420E0822F90E0D2
:102980009C838B8389819A818071992721E0892B8F
:1029900009F420E0822F90E09E838D838D819E81BB
:1029A000019761F58B819C81892BA1F48091500462
:1029B00090915104A0915204B09153040196A11D2D
:1029C000B11D8093500490935104A0935204B0938E
:1029D00053043FC08091500490915104A09152043F
:1029E000B09153040197A109B109809350049093C9
:1029F0005104A0935204B09353042BC08B819C814B
:102A00000197A1F48091500490915104A091520437
:102A1000B09153040196A11DB11D80935004909371
:102A20005104A0935204B093530413C080915004F6
:102A300090915104A0915204B09153040197A109BF
:102A4000B1098093500490935104A0935204B09321
:102A50005304000026960FB6F894DEBF0FBECDBF1C
:102A6000DF91CF910895CF93DF9300D000D0CDB701
:102A7000DEB78CE290E0FC018081882F90E09A83A1
:102A8000898389819A818071992721E0892B09F4B2
:102A900020E0822F90E09C838B8389819A818072D1
:102AA000992721E0892B09F420E0822F90E09E8372
:102AB0008D838D819E81019761F58B819C8101972A
:102AC000A1F48091500490915104A0915204B091CE
:102AD00053040196A11DB11D80935004909351049D
:102AE000A0935204B09353043FC08091500490913E
:102AF0005104A0915204B09153040197A109B10966
:102B00008093500490935104A0935204B0935304C3
:102B10002BC08B819C81892BA1F4809150049091D2
:102B20005104A0915204B09153040196A11DB11D0E
:102B30008093500490935104A0935204B093530493
:102B400013C08091500490915104A0915204B0910F
:102B500053040197A109B109809350049093510443
:102B6000A0935204B0935304000026960FB6F89435
:102B7000DEBF0FBECDBFDF91CF910895CF93DF931E
:102B800000D000D0CDB7DEB789E290E0FC018081B3
:102B9000882F90E09A83898389819A818870992708
:102BA00021E0892B09F420E0822F90E09C838B8325
:102BB00089819A818470992721E0892B09F420E08A
:102BC000822F90E09E838D838D819E81019761F598
:102BD0008B819C81892BA1F480915E0490915F048C
:102BE000A0916004B09161040196A11DB11D809374
:102BF0005E0490935F04A0936004B09361043FC0AF
:102C000080915E0490915F04A0916004B091610492
:102C10000197A109B10980935E0490935F04A0938A
:102C20006004B09361042BC08B819C810197A1F457
:102C300080915E0490915F04A0916004B091610462
:102C40000196A11DB11D80935E0490935F04A09333
:102C50006004B093610413C080915E0490915F049E
:102C6000A0916004B09161040197A109B10980931A
:102C70005E0490935F04A0936004B093610400002D
:102C800026960FB6F894DEBF0FBECDBFDF91CF9171
:102C90000895CF93DF9300D000D0CDB7DEB789E29F
:102CA00090E0FC018081882F90E09A83898389815C
:102CB0009A818470992721E0892B09F420E0822FE2
:102CC00090E09C838B8389819A818870992721E089
:102CD000892B09F420E0822F90E09E838D838D81E3
:102CE0009E81019761F58B819C810197A1F4809170
:102CF0005E0490915F04A0916004B091610401961C
:102D0000A11DB11D80935E0490935F04A0936004A5
:102D1000B09361043FC080915E0490915F04A091E4
:102D20006004B09161040197A109B10980935E0428
:102D300090935F04A0936004B09361042BC08B81D7
:102D40009C81892BA1F480915E0490915F04A091F5
:102D50006004B09161040196A11DB11D80935E04D1
:102D600090935F04A0936004B093610413C08091BA
:102D70005E0490915F04A0916004B091610401979A
:102D8000A109B10980935E0490935F04A09360044D
:102D9000B0936104000026960FB6F894DEBF0FBE14
:102DA000CDBFDF91CF910895CF93DF9300D000D0B6
:102DB000CDB7DEB78CE290E0FC018081882F90E0F7
:102DC0009A83898389819A81880F892F881F990B1B
:102DD000817099279C838B8389819A81082E892F02
:102DE000000C881F990B000C881F991F8170992770
:102DF0009E838D838D819E81019761F58B819C815E
:102E0000892BA1F480916C0490916D04A0916E04C3
:102E1000B0916F040196A11DB11D80936C04909335
:102E20006D04A0936E04B0936F043FC080916C0456
:102E300090916D04A0916E04B0916F040197A10967
:102E4000B10980936C0490936D04A0936E04B093C9
:102E50006F042BC08B819C810197A1F480916C043D
:102E600090916D04A0916E04B0916F040196A11D24
:102E7000B11D80936C0490936D04A0936E04B09385
:102E80006F0413C080916C0490916D04A0916E0446
:102E9000B0916F040197A109B10980936C049093DC
:102EA0006D04A0936E04B0936F04000026960FB6D5
:102EB000F894DEBF0FBECDBFDF91CF910895CF93C1
:102EC000DF9300D000D0CDB7DEB78CE290E0FC01FC
:102ED0008081882F90E09A83898389819A81082E46
:102EE000892F000C881F990B000C881F991F817077
:102EF00099279C838B8389819A81880F892F881FCA
:102F0000990B817099279E838D838D819E81019776
:102F100061F58B819C810197A1F480916C04909163
:102F20006D04A0916E04B0916F040196A11DB11DB6
:102F300080936C0490936D04A0936E04B0936F041F
:102F40003FC080916C0490916D04A0916E04B0918B
:102F50006F040197A109B10980936C0490936D04EB
:102F6000A0936E04B0936F042BC08B819C81892B3E
:102F7000A1F480916C0490916D04A0916E04B091C5
:102F80006F040196A11DB11D80936C0490936D0494
:102F9000A0936E04B0936F0413C080916C04909161
:102FA0006D04A0916E04B0916F040197A109B1095D
:102FB00080936C0490936D04A0936E04B0936F049F
:102FC000000026960FB6F894DEBF0FBECDBFDF918E
:102FD000CF9108951F920F920FB60F9211240BB646
:102FE0000F922F933F934F938F939F93AF93BF93E2
:102FF000EF93FF93CF93DF9300D000D0CDB7DEB730
:1030000083E290E0FC018081882F90E09A8389839D
:1030100089819A818072992721E0892B09F420E027
:10302000822F90E09C838B8389819A818074992779
:1030300021E0892B09F420E0822F90E09E838D838C
:10304000809190049091910441E02B813C8128175C
:10305000390709F040E0442309F462C08D819E8164
:1030600090938F0480938E048D819E81019761F5EA
:103070008B819C81892BA1F4809188049091890493
:10308000A0918A04B0918B040196A11DB11D80937B
:10309000880490938904A0938A04B0938B04A1C000
:1030A0008091880490918904A0918A04B0918B0446
:1030B0000197A109B1098093880490938904A09392
:1030C0008A04B0938B048DC08B819C810197A1F4FD
:1030D0008091880490918904A0918A04B0918B0416
:1030E0000196A11DB11D8093880490938904A0933B
:1030F0008A04B0938B0475C08091880490918904F0
:10310000A0918A04B0918B040197A109B109809321
:10311000880490938904A0938A04B0938B0461C0BF
:103120008B819C8190939104809390048B819C81EE
:10313000019761F58D819E810197A1F480918804AA
:1031400090918904A0918A04B0918B040196A11DED
:10315000B11D8093880490938904A0938A04B0934E
:103160008B043FC08091880490918904A0918A04C7
:10317000B0918B040197A109B109809388049093C1
:103180008904A0938A04B0938B042BC08D819E8107
:10319000892BA1F48091880490918904A0918A04DC
:1031A000B0918B040196A11DB11D8093880490936A
:1031B0008904A0938A04B0938B0413C0809188047F
:1031C00090918904A0918A04B0918B040197A10980
:1031D000B1098093880490938904A0938A04B093E2
:1031E0008B048D819E81019761F58B819C81892B58
:1031F000A1F48091880490918904A0918A04B091EF
:103200008B040196A11DB11D8093880490938904BD
:10321000A0938A04B0938B043FC08091880490915E
:103220008904A0918A04B0918B040197A109B10986
:103230008093880490938904A0938A04B0938B04AC
:103240002BC08B819C810197A1F48091880490917F
:103250008904A0918A04B0918B040196A11DB11D2F
:103260008093880490938904A0938A04B0938B047C
:1032700013C08091880490918904A0918A04B09130
:103280008B040197A109B109809388049093890464
:10329000A0938A04B0938B04000026960FB6F8948E
:1032A000DEBF0FBECDBFDF91CF91FF91EF91BF91F8
:1032B000AF919F918F914F913F912F910F900BBEA6
:1032C0000F900FBE0F901F9018951F920F920FB680
:1032D0000F9211240BB60F922F938F939F93AF935E
:1032E000BF93EF93FF93CF93DF9300D01F92CDB79F
:1032F000DEB786E091E0FC018081882F90E081704C
:10330000992721E0892B09F420E0822F90E09A830D
:10331000898383E091E0FC018081882F90E08170B7
:10332000992721E0892B09F420E0822F90E09C83EB
:103330008B838B819C81019761F589819A81892B8F
:10334000A1F480917A0490917B04A0917C04B091C7
:103350007D040196A11DB11D80937A0490937B0496
:10336000A0937C04B0937D043FC080917A04909137
:103370007B04A0917C04B0917D040197A109B1095F
:1033800080937A0490937B04A0937C04B0937D0493
:103390002BC089819A810197A1F480917A04909140
:1033A0007B04A0917C04B0917D040196A11DB11D08
:1033B00080937A0490937B04A0937C04B0937D0463
:1033C00013C080917A0490917B04A0917C04B09109
:1033D0007D040197A109B10980937A0490937B043D
:1033E000A0937C04B0937D0400000F900F900F9089
:1033F0000F90DF91CF91FF91EF91BF91AF919F918E
:103400008F912F910F900BBE0F900FBE0F901F90BA
:1034100018951F920F920FB60F9211240BB60F92B0
:103420002F938F939F93AF93BF93EF93FF93CF937C
:10343000DF9300D01F92CDB7DEB783E091E0FC01AF
:103440008081882F90E08170992721E0892B09F4F1
:1034500020E0822F90E09A83898386E091E0FC014E
:103460008081882F90E08170992721E0892B09F4D1
:1034700020E0822F90E09C838B838B819C8101973D
:1034800061F589819A810197A1F480917A049091E4
:103490007B04A0917C04B0917D040196A11DB11D17
:1034A00080937A0490937B04A0937C04B0937D0472
:1034B0003FC080917A0490917B04A0917C04B091EC
:1034C0007D040197A109B10980937A0490937B044C
:1034D000A0937C04B0937D042BC089819A81892BB1
:1034E000A1F480917A0490917B04A0917C04B09126
:1034F0007D040196A11DB11D80937A0490937B04F5
:10350000A0937C04B0937D0413C080917A049091C1
:103510007B04A0917C04B0917D040197A109B109BD
:1035200080937A0490937B04A0937C04B0937D04F1
:1035300000000F900F900F900F90DF91CF91FF91AF
:10354000EF91BF91AF919F918F912F910F900BBEF3
:103550000F900FBE0F901F901895CF93DF9300D060
:1035600000D0CDB7DEB79A8389837C836B835E837B
:103570004D8329813A81C901880F991F880F991FAE
:10358000880F991F821B930B880F991F845B9B4F99
:103590002B813C81FC013183208329813A81C9013F
:1035A000880F991F880F991F880F991F821B930BF3
:1035B000880F991F825B9B4F2D813E81FC013183D7
:1035C000208329813A81C901880F991F880F991F8B
:1035D000880F991F821B930B880F991F845B9B4F49
:1035E000FC018081918160E00E94FC7729813A8111
:1035F000C901880F991F880F991F880F991F821B77
:10360000930B880F991F825B9B4FFC0180819181F6
:1036100060E00E94FC7729813A81C901880F991FD7
:10362000880F991F880F991F821B930B880F991F72
:10363000845B9B4FFC018081918161E00E949B79BA
:1036400029813A81C901880F991F880F991F880F16
:10365000991F821B930B880F991F825B9B4FFC0164
:103660008081918161E00E949B7989819A81823079
:10367000910509F43EC0833091052CF4009759F070
:10368000019701F18EC08330910509F449C0049778
:1036900009F46BC086C080914C0490914D0407D909
:1036A00041E050E068EA74E10E948C7180914E0420
:1036B00090914F04FCD841E050E063E375E10E9433
:1036C0008C716FC080915A0490915B04F0D841E0F6
:1036D00050E06EEB75E10E948C7180915C049091DA
:1036E0005D04E5D841E050E069E476E10E948C7128
:1036F00058C08091680490916904D9D841E050E0A5
:1037000064ED76E10E948C7180916A0490916B0463
:10371000CED841E050E06FE577E10E948C7141C066
:1037200088E690E0FC01208188E690E02460FC01BE
:10373000208388E690E0FC01208188E690E022600A
:10374000FC0120838DE690E0FC0120818DE690E075
:103750002160FC0120838CE690E0FC0120818CE656
:1037600090E02260FC0120831CC088E690E0FC0110
:10377000208188E690E02160FC0120838BE690E0C8
:10378000FC0120818BE690E02062FC0120838BE627
:1037900090E0FC0120818BE690E02064FC01208316
:1037A0000000000026960FB6F894DEBF0FBECDBF16
:1037B000DF91CF910895CF93DF9300D01F92CDB7C3
:1037C000DEB769837A838B839C8329813A81C9011F
:1037D000880F991F880F991F880F991F821B930BC1
:1037E000880F991F805B9B4FFC0180819181A28192
:1037F000B381BC01CD010F900F900F900F90DF911E
:10380000CF910895CF93DF9300D000D0CDB7DEB72E
:103810009C838B837E836D831A82198289819A812E
:1038200026960FB6F894DEBF0FBECDBFDF91CF91C5
:103830000895CF93DF9300D000D01F921F92CDB791
:10384000DEB79E838D8378876F831C821B828D8178
:103850009E81892B19F48FEF9FEFB2C08F819885DD
:10386000892B19F48FEF9FEFABC080916A02909182
:103870006B02A0916C02B0916D028E3F9F4FAF4FD3
:10388000BF4F61F48FEF9FEFDC0180936A0290934A
:103890006B02A0936C02B0936D020FC080916A021C
:1038A00090916B02A0916C02B0916D022F813885CE
:1038B000F90180839183A283B38380916A029091FE
:1038C0006B02A0916C02B0916D028D819E81FC0112
:1038D00082819381FC0180819181A281B381809357
:1038E000DD049093DE04A093DF04B093E0048D81A7
:1038F0009E81FC0182819381FC0184819581A68156
:10390000B7818093E1049093E204A093E304B09321
:10391000E4048D819E81FC0182819381FC0180857C
:103920009185A285B3858093E5049093E604A093E6
:10393000E704B093E8048D819E81FC01828193812C
:10394000FC0184859585A685B7858093E9049093CD
:10395000EA04A093EB04B093EC041092ED041092EF
:10396000EE041092EF041092F0040E9455301A8277
:1039700019821A82198210C089819A81880F991F31
:103980008E569B4F20E830E3FC01318320838981F0
:103990009A8101969A83898389819A81029760F33B
:1039A0000E945C2B9C838B838B819C81892B31F4BF
:1039B00081E090E09093DC048093DB048B819C8118
:1039C00028960FB6F894DEBF0FBECDBFDF91CF9122
:1039D0000895CF93DF93CDB7DEB72C970FB6F89449
:1039E000DEBF0FBECDBF69877A878B879C871A821F
:1039F00019821B821C821D821E821F829091D90413
:103A000081E0992309F080E0888782E090E090933C
:103A1000DC048093DB0489859A85AB85BC85892B82
:103A20008A2B8B2B59F48091D904882339F4809107
:103A3000DA04882319F481E090E002C080E090E08D
:103A40008F8331C06AE070E080E090E00E943E75B4
:103A50008B819C81AD81BE81805F984DAF4FBF4F00
:103A60008B839C83AD83BE8389859A85AB85BC851A
:103A70008F3F9F4FAF4FBF4F81F02B813C814D81D6
:103A80005E8189859A85AB85BC8582179307A407DB
:103A9000B50718F481E090E002C080E090E08F83E9
:103AA00080E00E94A42B8091D904882339F480916E
:103AB000DA04882319F48F81882321F283E090E0CF
:103AC0009093DC048093DB048F81882321F08CE9C0
:103AD0009FEF9A8389838885882311F00E947C3127
:103AE00089819A812C960FB6F894DEBF0FBECDBFA8
:103AF000DF91CF910895CF93DF93CDB7DEB7619774
:103B00000FB6F894DEBF0FBECDBF9D878C874E8762
:103B10005F87688B798B1A82198281E08B838C8511
:103B20009D858F3F910521F018F08FEF9FEF63C0C7
:103B30008091DB049091DC04039731F08091DB04E9
:103B40009091DC04019731F484E090E09093DC04E0
:103B50008093DB048C859D85029708F58C859D8577
:103B6000880F991F8E569B4FFC0180819181892B74
:103B7000B1F00E9436369D838C838C819D810297A3
:103B800071F48C859D85880F991F8E569B4FFC0183
:103B9000208131818C859D85F90119958B838C85D8
:103BA0009D859F838E832C853D858E859F85A889E5
:103BB000B989A901BC01CD010E94392BDC01CB01DF
:103BC00088879987AA87BB878B81882371F088852E
:103BD0009985AA85BB852E813F81AC01BD01C901B4
:103BE0000E9406369A83898304C08E819F810E9439
:103BF000783689819A8161960FB6F894DEBF0FBE40
:103C0000CDBFDF91CF910895CF93DF931F921F9285
:103C1000CDB7DEB71A82198280E00E94A42B9A8366
:103C2000898389819A810F900F90DF91CF910895B8
:103C3000CF93DF931F921F92CDB7DEB71A821982FE
:103C400086E090E09093DC048093DB040E94342CA7
:103C50009A83898344E050E060E070E082E994E078
:103C60000E9478810E940E311092DC041092DB04D5
:103C700089819A810F900F90DF91CF910895CF9312
:103C8000DF93CDB7DEB78091DA04DF91CF9108954D
:103C9000CF93DF93CDB7DEB78091F104DF91CF9161
:103CA0000895CF93DF9300D01F92CDB7DEB769831D
:103CB0007A838B839C8389819A81AB81BC81809339
:103CC0006A0290936B02A0936C02B0936D0280E045
:103CD00090E00F900F900F900F90DF91CF9108958B
:103CE000CF93DF93CDB7DEB76A970FB6F894DEBFF8
:103CF0000FBECDBF80E290E09E838D8319821A8231
:103D00001B821C828D819E81809741F458D0DC01FA
:103D1000CB0189839A83AB83BC8342C081E090E06E
:103D20009A878987CE010996FC01908181E09130C4
:103D300009F480E0882F90E098878F838F819885A1
:103D4000009719F00197B9F02BC080E090E0A0EF48
:103D5000BFE78F87988BA98BBA8B1B861C861D8625
:103D60001E868B859C85AD85BE8589839A83AB83B2
:103D7000BC83000015C080E090E0A0EFBFE78B8B14
:103D80009C8BAD8BBE8B1F8A188E198E1A8E8B89D9
:103D90009C89AD89BE8989839A83AB83BC830000EB
:103DA00089819A81AB81BC81BC01CD016A960FB635
:103DB000F894DEBF0FBECDBFDF91CF910895CF93B2
:103DC000DF9300D01F92CDB7DEB780E090E0A0E88F
:103DD000BFE789839A83AB83BC8389819A81AB8156
:103DE000BC81BC01CD010F900F900F900F90DF911F
:103DF000CF910895CF93DF93CDB7DEB76A970FB613
:103E0000F894DEBF0FBECDBF80E290E09E838D832D
:103E100019821A821B821C828D819E81809741F4B7
:103E200058D0DC01CB0189839A83AB83BC8342C029
:103E300081E090E09A878987CE010996FC01908104
:103E400081E0913009F480E0882F90E098878F839B
:103E50008F819885009719F00197B9F02BC080E009
:103E600090E0A0EFBFEF8F87988BA98BBA8B1B8652
:103E70001C861D861E868B859C85AD85BE858983A7
:103E80009A83AB83BC83000015C080E090E0A0EF74
:103E9000BFEF8B8B9C8BAD8BBE8B1F8A188E198EC0
:103EA0001A8E8B899C89AD89BE8989839A83AB835D
:103EB000BC83000089819A81AB81BC81BC01CD01AA
:103EC0006A960FB6F894DEBF0FBECDBFDF91CF91DB
:103ED0000895CF93DF9300D01F92CDB7DEB780E077
:103EE00090E0A0E8BFEF89839A83AB83BC8389818C
:103EF0009A81AB81BC81BC01CD010F900F900F90D6
:103F00000F90DF91CF910895CF93DF93CDB7DEB7B8
:103F10006A970FB6F894DEBF0FBECDBF80E290E087
:103F20009E838D8319821A821B821C828D819E81C1
:103F3000809741F45BD0DC01CB0189839A83AB830A
:103F4000BC8345C081E090E09A878987CE010996BD
:103F5000FC01908181E0913009F480E0882F90E0AD
:103F600098878F838F819885009719F00197B9F012
:103F70002EC080E090E0A8EFBFEF8F87988BA98BD1
:103F8000BA8B1B861C861D861E868B859C85AD85FF
:103F9000BE8589839A83AB83BC83000018C08FEFF2
:103FA0009FEFAFEFBFE78B8B9C8BAD8BBE8B8FEF03
:103FB0009FEFDC018F8B988FA98FBA8F8B899C899B
:103FC000AD89BE8989839A83AB83BC8300008981D4
:103FD0009A81AB81BC81BC01CD016A960FB6F89481
:103FE000DEBF0FBECDBFDF91CF910895CF93DF939A
:103FF00000D000D01F921F92CDB7DEB71B821C826B
:104000001D821E8281E090E098878F83CE01079603
:10401000FC01908181E0913009F480E0882F90E0EC
:104020009A83898389819A81009719F0019751F0C9
:1040300012C080E090E0A0ECBFEF8B839C83AD8347
:10404000BE8309C08FEF9FEFAFEFBFE78B839C83E9
:10405000AD83BE8300008B819C81AD81BE81BC019C
:10406000CD0128960FB6F894DEBF0FBECDBFDF910D
:10407000CF910895CF93DF931F921F92CDB7DEB7F4
:104080009A83898341DFDC01CB018093860A909378
:10409000870AA093880AB093890AA8DFDC01CB01C4
:1040A00080937A0A90937B0AA0937C0AB0937D0A4E
:1040B00017DEDC01CB018093820A9093830AA093E0
:1040C000840AB093850A7BDEDC01CB0180937E0AF3
:1040D00090937F0AA093800AB093810A8BDEDC0163
:1040E000CB0180938A0A90938B0AA0938C0AB09399
:1040F0008D0AEFDEDC01CB0180938E0A90938F0A4C
:10410000A093900AB093910A00000F900F90DF9156
:10411000CF910895CF93DF9300D01F92CDB7DEB734
:1041200069837A838B839C838091820A9091830A2E
:10413000A091840AB091850A9C01AD0169817A81C0
:104140008B819C810E94FE6E882391F080918A0A67
:1041500090918B0AA0918C0AB0918D0A9C01AD01BF
:1041600069817A818B819C810E94FE6E882311F483
:1041700081E001C080E00F900F900F900F90DF91D1
:10418000CF910895CF93DF9300D01F92CDB7DEB7C4
:1041900069837A838B839C8380917E0A90917F0AC6
:1041A000A091800AB091810A9C01AD0169817A8158
:1041B0008B819C810E94FE6E882391F080918E0AF3
:1041C00090918F0AA091900AB091910A9C01AD0143
:1041D00069817A818B819C810E94FE6E882311F413
:1041E00081E001C080E00F900F900F900F90DF9161
:1041F000CF910895CF93DF93CDB7DEB72F970FB64A
:10420000F894DEBF0FBECDBF6C877D878E879F87FA
:10421000198280E290E09B838A838A819B818097C8
:1042200049F48C859D85AE85BF85BC01CD0138D014
:1042300089832CC08C859D85AE85BF858C839D83AD
:10424000AE83BF8388859985AA85BB8588279927F2
:10425000A07FBF770097A04FBF47A9F488859985B5
:10426000AA85BB85AF70BB27892B8A2B8B2B41F48A
:104270008C819D81AE81BF81892B8A2B8B2B19F07C
:1042800081E090E002C080E090E0898389812F96F0
:104290000FB6F894DEBF0FBECDBFDF91CF9108956A
:1042A000CF93DF9300D000D01F921F92CDB7DEB71F
:1042B0006D837E838F8398878D819E81AF81B88542
:1042C00089839A83AB83BC8389819A81AB81BC81CA
:1042D00088279927A078BF770097A048BF4769F43F
:1042E00089819A81AB81BC81AF77BB27892B8A2BCF
:1042F0008B2B19F081E090E002C080E090E02896DE
:104300000FB6F894DEBF0FBECDBFDF91CF910895F9
:10431000CF92DF92EF92FF92CF93DF93CDB7DEB7CC
:1043200060970FB6F894DEBF0FBECDBF69877A875E
:104330008B879C872D873E874F87588B89859A85E9
:10434000AB85BC85BC01CD0155DF882349F48D8543
:104350009E85AF85B889BC01CD014CDF882369F00B
:104360008091860A9091870AA091880AB091890A63
:1043700089839A83AB83BC83ABC089859A85AB85DF
:10438000BC85BC01CD01C6DE882309F457C08D85EC
:104390009E85AF85B889BC01CD01BCDE882309F4B8
:1043A0004DC020E030E0A90169857A858B859C8528
:1043B0000E94137118162CF481E090E09E838D8387
:1043C00004C08FEF9FEF9E838D8320E030E0A90132
:1043D0006D857E858F8598890E94137118162CF43F
:1043E00081E090E098878F8304C08FEF9FEF9887DC
:1043F0008F838F819885092E000CAA0BBB0BBC0103
:10440000CD010E949D6F6B017C018D819E81092EE3
:10441000000CAA0BBB0BBC01CD010E949D6FDC01FF
:10442000CB01A7019601BC01CD010E94AB6EDC015E
:10443000CB0189839A83AB83BC834AC020E030E000
:10444000A9016D857E858F8598890E94FE6E8823DF
:1044500069F520E030E0A90169857A858B859C8526
:104460000E94137118164CF48BED9FE0A9ECBFE38A
:1044700089839A83AB83BC832BC020E030E0A90101
:1044800069857A858B859C850E94FE6E88234CF415
:104490008BED9FE0A9ECBFEB89839A83AB83BC8350
:1044A00017C019821A821B821C8212C02D853E857C
:1044B0004F85588989859A85AB85BC85BC01CD011E
:1044C0000E94AB6EDC01CB0189839A83AB83BC83F2
:1044D00089819A81AB81BC81BC01CD0160960FB608
:1044E000F894DEBF0FBECDBFDF91CF91FF90EF906C
:1044F000DF90CF9008958F929F92AF92BF92CF920C
:10450000DF92EF92FF920F931F93CF93DF93CDB77C
:10451000DEB76C970FB6F894DEBF0FBECDBFCE01ED
:1045200047960E944E0F898D9A8D9093F40A80933E
:10453000F30A8B8D9C8D9093F60A8093F50A8091F7
:10454000F50A9091F60A092E000CAA0BBB0BBC01D0
:10455000CD010E949D6F6B017C018091F30A9091C7
:10456000F40A092E000CAA0BBB0BBC01CD010E9462
:104570009D6FDC01CB01A7019601BC01CD01C8DE16
:104580007B018C018091260290912702A091280244
:10459000B09129029C01AD01C801B7010E94386E9B
:1045A000DC01CB018093D70A9093D80AA093D90A53
:1045B000B093DA0ACE0147960E94990F8F89988DA1
:1045C000092E000CAA0BBB0BBC01CD010E949D6FF4
:1045D000DC01CB018093DB0A9093DC0AA093DD0A17
:1045E000B093DE0A8091DB0A9091DC0AA091DD0A8B
:1045F000B091DE0A20912E0230912F0240913002BC
:1046000050913102BC01CD010E94376EDC01CB011B
:104610007C018D018091320290913302A09134028D
:10462000B09135029C01AD01C801B7010E941E7115
:10463000DC01CB0189879A87AB87BC878091160202
:1046400090911702A0911802B091190229853A851C
:104650004B855C85BC01CD010E941E71DC01CB0144
:104660007C018D018091B40A9091B50AA091B60A9F
:10467000B091B70A9C01AD01C801B7010E94386E24
:10468000DC01CB017C018D0180913A0290913B02CB
:10469000A0913C02B0913D029C01AD01C801B7015F
:1046A0000E941E71DC01CB016C017D0180912A0208
:1046B00090912B02A0912C02B0912D022091D70A4B
:1046C0003091D80A4091D90A5091DA0ABC01CD0143
:1046D0000E941E71DC01CB019C01AD01C701B60136
:1046E0000E94386EDC01CB018093B40A9093B50A26
:1046F000A093B60AB093B70A60E070E0CB015BD834
:10470000DC01CB018D879E87AF87B88BC0903E02BE
:10471000D0903F02E0904002F09041026D857E858E
:104720008F8598890E949D6FDC01CB019C01AD01B2
:10473000C701B6010E941E71DC01CB018093DF0A24
:104740009093E00AA093E10AB093E20A8091DF0A15
:104750009091E00AA091E10AB091E20A2091420210
:10476000309143024091440250914502BC01CD0179
:104770000E941E71DC01CB01898B9A8BAB8BBC8BA9
:104780008091460290914702A0914802B09149025F
:104790002091B40A3091B50A4091B60A5091B70AF7
:1047A000BC01CD010E941E71DC01CB018093E30AA4
:1047B0009093E40AA093E50AB093E60A8091B80AC0
:1047C0009091B90AA091BA0AB091BB0A9C01AD01BF
:1047D00069897A898B899C890E94376EDC01CB01BB
:1047E00029853A854B855C85BC01CD010E94386ED8
:1047F000DC01CB017C018D018091120290911302AA
:10480000A0911402B0911502B0589C01AD01C801ED
:10481000B7010E941E71DC01CB017C018D018091EA
:10482000060290910702A0910802B09109029C0132
:10483000AD01C801B7010E941E71DC01CB016C0102
:104840007D018091B40A9091B50AA091B60AB09109
:10485000B70A2091DF0A3091E00A4091E10A5091B5
:10486000E20ABC01CD010E94386EDC01CB014C0193
:104870005D018091120290911302A0911402B091F7
:104880001502B0589C01AD01C501B4010E941E7112
:10489000DC01CB014C015D01809102029091030289
:1048A000A0910402B09105029C01AD01C501B401C3
:1048B0000E941E71DC01CB019C01AD01C701B60154
:1048C0000E94386EDC01CB016C017D0180910A02EF
:1048D00090910B02A0910C02B0910D022091E30A7D
:1048E0003091E40A4091E50A5091E60ABC01CD01FD
:1048F0000E941E71DC01CB019C01AD01C701B60114
:104900000E94386EDC01CB016C017D0180914A026E
:1049100090914B02A0914C02B0914D0229853A85AD
:104920004B855C85BC01CD010E941E71DC01CB0171
:104930004C015D0180910E0290910F02A091100236
:10494000B09111029C01AD01C501B4010E941E711C
:10495000DC01CB019C01AD01C701B6010E94386E9C
:10496000DC01CB017C018D0180914E0290914F02C0
:10497000A0915002B09151029C01AD01C801B70154
:104980000E941E71DC01CB0189839A83AB83BC83B7
:104990008091220290912302A0912402B0912502DD
:1049A00011E09C01AD0169817A818B819C810E941B
:1049B000FE6E88230CF010E0812F682F84E00E94A7
:1049C000151086EA9AE09E8B8D8B65E070E080E0A2
:1049D00090E00E9404119C018D899E89FC0137831F
:1049E000268380911E0290911F02A0912002B09117
:1049F00021029C01AD0169817A818B819C810E9499
:104A0000137118166CF480911E0290911F02A091F0
:104A10002002B091210289839A83AB83BC831EC09C
:104A20008091620290916302A0916402B09165024C
:104A30009C01AD0169817A818B819C810E94FE6E0F
:104A4000882364F48091620290916302A0916402D1
:104A5000B091650289839A83AB83BC83809166029F
:104A600090916702A0916802B091690229813A8110
:104A70004B815C81BC01CD010E941E71DC01CB0128
:104A8000BC01CD010E94D86FDC01CB018D839E83D8
:104A9000AF83B8878D819E81AF81B885BC01CD0180
:104AA000FFDB882349F48D819E81AF81B885BC01ED
:104AB000CD0168DB882329F01D821E821F821886A3
:104AC00012C08D819E81AF81B88520E030E040E842
:104AD00053E4BC01CD010E94F26FDC01CB018D8358
:104AE0009E83AF83B88720E030E0A9016D817E818D
:104AF0008F8198850E94FE6E8823CCF48D819E81E3
:104B0000AF81B885B058BC01CD010E946F6FDC0148
:104B1000CB018195882F90E0092E000CAA0BBB0BCE
:104B2000BC01CD010E949D6FDC01CB0114C06D81E1
:104B30007E818F8198850E946F6FDC01CB01882F69
:104B400090E0092E000CAA0BBB0BBC01CD010E940A
:104B50009D6FDC01CB012091AC0A3091AD0AAC0114
:104B6000BD01C9010E948B108091BC0A9091BD0AC1
:104B7000A091BE0AB091BF0A8093E70A9093E80A19
:104B8000A093E90AB093EA0A80915A0290915B02DD
:104B9000A0915C02B0915D022091E70A3091E80A91
:104BA0004091E90A5091EA0ABC01CD010E941E71B0
:104BB000DC01CB018093EB0A9093EC0AA093ED0A01
:104BC000B093EE0A80915E0290915F02A091600224
:104BD000B09161022091D70A3091D80A4091D90A48
:104BE0005091DA0ABC01CD010E941E71DC01CB019B
:104BF0008093EF0A9093F00AA093F10AB093F20A1F
:104C000089899A89AB89BC898093B80A9093B90A3B
:104C1000A093BA0AB093BB0AC090BC0AD090BD0A58
:104C2000E090BE0AF090BF0A809152029091530228
:104C3000A0915402B091550229853A854B855C8537
:104C4000BC01CD010E941E71DC01CB019C01AD01B4
:104C5000C701B6010E94386EDC01CB018093BC0A0B
:104C60009093BD0AA093BE0AB093BF0A26E934E030
:104C7000F901828D938DA48DB58D0196A11DB11D75
:104C8000F901828F938FA48FB58FF901828D938D57
:104C9000A48DB58D892B8A2B8B2B79F426E934E0F2
:104CA000F901868D978DA0A1B1A10196A11DB11D1D
:104CB000F901868F978FA0A3B1A386E994E0FC0148
:104CC000828D938DA48DB58DBC01CD010E949B6F0B
:104CD0007B018C0186E994E0FC0182A193A1A4A14F
:104CE000B5A19C01AD01C801B7010E941E71DC0194
:104CF000CB016C017D0186E994E0FC01868D978DE6
:104D0000A0A1B1A1BC01CD010E949B6F4B015C0130
:104D100086E994E0FC0182A193A1A4A1B5A19C0124
:104D2000AD01C501B4010E941E71DC01CB0120E080
:104D300030E040E85FE4BC01CD010E941E71DC015F
:104D4000CB0106E914E09C01AD01C701B6010E9448
:104D5000386EDC01CB01F801868B978BA08FB18F69
:104D600000006C960FB6F894DEBF0FBECDBFDF918A
:104D7000CF911F910F91FF90EF90DF90CF90BF9058
:104D8000AF909F908F900895EF92FF920F931F9393
:104D9000CF93DF931F921F92CDB7DEB784E090E0F0
:104DA00069D986E994E04BE250E060E070E00E944F
:104DB000788126E934E080E090E0A0EAB1E4F901EE
:104DC00086A397A3A0A7B1A726E934E08AE097EDD0
:104DD000A3E2BCE3F90182A393A3A4A3B5A326E9AC
:104DE00034E08BE19DE4A8E5BFEEF901848395836F
:104DF000A683B78326E934E083E892E5A8EEB7E915
:104E0000F90180879187A287B38726E934E08EE392
:104E100097E8A6E2B5EEF90184879587A687B7875C
:104E200026E934E088EA9AE3A4E1BEE7F901808B41
:104E3000918BA28BB38B86E994E021EC34E0FC01EA
:104E4000338322838DEC94E09093C2048093C10459
:104E50008DEC92E09093CE048093CD048DEC92E0A3
:104E60009093D0048093CF048DEC92E09093D20481
:104E70008093D1048DEC92E09093D4048093D3047A
:104E80008DEC92E09093D6048093D5048DEC92E063
:104E90009093D8048093D70426E934E086E994E01F
:104EA000FC01828193812C5E3F4FFC01358324837A
:104EB00026E934E086E994E0FC01828193812C5F4D
:104EC0003F4FFC013383228326E934E086E994E0F6
:104ED000FC01828193812A5E3F4FFC013783268348
:104EE00040E250E060E070E087ED9AE00E94788157
:104EF00045E450E060E070E082E99AE00E94788149
:104F00001092920A81E08093D60A81E090E0A0E0BE
:104F1000B0E08093930A9093940AA093950AB0937B
:104F2000960A0E94300F81E08093970A1092980AA7
:104F300081E08093D50A81E090E0A0E0B0E080932A
:104F4000990A90939A0AA0939B0AB0939C0A80E0D6
:104F500090E00E947F0F81E080939D0A1092AE0A3C
:104F600081E08093D20A81E090E0A0E0B0E08093FD
:104F7000AF0A9093B00AA093B10AB093B20A42E08C
:104F800050E063E070E080E090E00E94AD1A81E0C4
:104F90008093B30A10929E0A81E08093D40A81E044
:104FA00090E0A0E0B0E080939F0A9093A00AA093C5
:104FB000A10AB093A20A61E084E00E94F30F81E0AD
:104FC0008093A30A1092A60A81E08093D30A86EA0E
:104FD0009AE09A83898381E090E0A0E0B0E080933A
:104FE000A70A9093A80AA093A90AB093AA0AE12C51
:104FF000F12C870120E030E0A90165E070E080E05D
:1050000090E00E942F109C0189819A81FC013783D6
:10501000268381E08093AB0A80913602909137021B
:10502000A0913802B09139028093B40A9093B50AE6
:10503000A093B60AB093B70A80911A0290911B020E
:10504000A0911C02B0911D028093B80A9093B90AF6
:10505000A093BA0AB093BB0A80915602909157026E
:10506000A0915802B09159028093BC0A9093BD0A56
:10507000A093BE0AB093BF0A00000F900F90DF917B
:10508000CF911F910F91FF90EF900895CF93DF93F1
:105090001F921F92CDB7DEB78091920A882319F430
:1050A00081E08093920A8091980A882319F481E024
:1050B0008093980A8091AE0A882319F481E0809346
:1050C000AE0A80919E0A882319F481E080939E0A9B
:1050D00086EA9AE09A8389838091A60A8823D1F58B
:1050E00081E08093A60A8091A70A9091A80AA091D6
:1050F000A90AB091AA0A0197A105B10559F58091B5
:10510000AB0A882339F165E070E080E090E00E940E
:1051100004119C0189819A81FC0137832683809147
:10512000AC0A9091AD0A40E050E0BA010E948B10A9
:1051300065E070E080E090E00E9404119C018981AC
:105140009A81FC01378326838091AC0A9091AD0A45
:105150000E94DF1000000F900F90DF91CF91089513
:105160000F931F93CF93DF9300D000D000D01F92F6
:10517000CDB7DEB79A8389834B835C836D837E834F
:105180000F83188729873A8729813A818B819C81EF
:10519000AD81BE81F90180839183A283B38389812C
:1051A0009A819C012C5F3F4F8F819885A985BA8594
:1051B000F90180839183A283B38300002A960FB6FE
:1051C000F894DEBF0FBECDBFDF91CF911F910F913D
:1051D0000895EF92FF920F931F93CF93DF93CDB774
:1051E000DEB76A970FB6F894DEBF0FBECDBF6D8BEA
:1051F0007E8B8F8B988F5A8F498F19821A821B82D0
:105200001C82F894898D9A8D892B09F00BC18091AD
:10521000FE049091FF04A0910005B09101052D8935
:105220003E894F89588D281739074A075B07C8F010
:105230008091FE049091FF04A0910005B0910105BA
:105240002D893E894F89588D79018A01E81AF90A1A
:105250000A0B1B0BD801C7018D839E83AF83B887D0
:1052600018C08091FE049091FF04A0910005B091B8
:1052700001052D893E894F89588D79018A01E81AE7
:10528000F90A0A0B1B0BD801C7018D839E83AF83DC
:10529000B8878091020590910305A0910405B09113
:1052A00005052D813E814F815885820F931FA41FD4
:1052B000B51F898B9A8BAB8BBC8B8091020590912B
:1052C0000305A0910405B091050529893A894B8908
:1052D0005C89281739074A075B0798F4809106050F
:1052E00090910705A0910805B09109050196A11DAF
:1052F000B11D8093060590930705A0930805B09310
:10530000090589899A89AB89BC89809302059093A4
:105310000305A0930405B09305052091060530917F
:10532000070540910805509109058091020590916B
:105330000305A0910405B091050589019A01AC010E
:10534000BD0186EF94E00CDF8D899E89AF89B88D11
:105350008093FE049093FF04A0930005B093010591
:105360002D813E814F81588580E197E2DC010E94CA
:1053700052819B01AC0180910A0590910B05A0918F
:105380000C05B0910D05820F931FA41FB51F8093CC
:105390000A0590930B05A0930C05B0930D05809121
:1053A0000A0590910B05A0910C05B0910D0589831C
:1053B0009A83AB83BC8380916A0290916B02A09127
:1053C0006C02B0916D028F3F9F4FAF4FBF4F09F4FA
:1053D0003CC180916A0290916B02A0916C02B091E5
:1053E0006D028E3F9F4FAF4FBF4F09F42EC12091EA
:1053F0000205309103054091040550910505809107
:105400006A0290916B02A0916C02B0916D0261E012
:10541000281739074A075B0708F460E0862F809356
:10542000F10413C119861A861B861C861D861E86EA
:105430001F86188A80916E0290916F02A09170026F
:10544000B09171028F3F9F4FAF4FBF4FE1F08091FE
:105450006E0290916F02A0917002B09171029C0156
:10546000AD012F5F3F4F4F4F5F4F8D899E89AF89B1
:10547000B88DBC01CD010E942881DC01CB018D8B50
:105480009E8BAF8BB88F8091FE049091FF04A0910A
:105490000005B09101052D893E894F89588D281747
:1054A00039074A075B0708F447C08091FE049091D2
:1054B000FF04A0910005B09101052D893E894F8917
:1054C000588D79018A01E81AF90A0A0B1B0BD801D9
:1054D000C70189879A87AB87BC872091FE043091EA
:1054E000FF0440910005509101058D899E89AF8987
:1054F000B88D79018A01E81AF90A0A0B1B0BD80149
:10550000C7018D879E87AF87B88B2D853E854F85D8
:10551000588989859A85AB85BC8582179307A4072E
:10552000B50728F019861A861B861C864BC01D8677
:105530001E861F86188A46C08091FE049091FF0443
:10554000A0910005B09101052D893E894F89588DA4
:1055500079018A01E81AF90A0A0B1B0BD801C70165
:1055600089879A87AB87BC872091FE043091FF041E
:1055700040910005509101058D899E89AF89B88DB4
:1055800079018A01E81AF90A0A0B1B0BD801C70135
:105590008D879E87AF87B88B2D853E854F8558892F
:1055A00089859A85AB85BC8582179307A407B507C3
:1055B00028F019861A861B861C8604C01D861E8646
:1055C0001F86188A89859A85AB85BC85892B8A2B8D
:1055D0008B2BE1F029853A854B855C8580E197E24C
:1055E000DC010E9452819B01AC0180910A059091DF
:1055F0000B05A0910C05B0910D05820F931FA41F00
:10560000B51F89839A83AB83BC831FC0E0900A05D2
:10561000F0900B0500910C0510910D052D853E8530
:105620004F85588980E197E2DC010E945281DC01BC
:10563000CB01A8019701281B390B4A0B5B0BDA0140
:10564000C90189839A83AB83BC83789489819A81C9
:10565000AB81BC81BC01CD016A960FB6F894DEBF68
:105660000FBECDBFDF91CF911F910F91FF90EF90B3
:105670000895CF93DF9300D000D0CDB7DEB7698314
:105680007A838B839C835E834D832D813E818981C8
:105690009A81AB81BC81A901BC01CD019ADDDC01FD
:1056A000CB01BC01CD0126960FB6F894DEBF0FBE2C
:1056B000CDBFDF91CF910895CF93DF9300D000D07D
:1056C000CDB7DEB71C821B821E821D821A82198210
:1056D0001092F2041092F3041092F4041092F50464
:1056E0009E012B5F3F4FCE010396B9010E94446A91
:1056F0002D813E818B819C81B9010E94BE579A8386
:10570000898389819A81892B19F089819A8113C0B3
:105710009E012B5F3F4FCE010396B9010E94686A3C
:105720002D813E818B819C81B9010E94DA349A835C
:10573000898389819A8126960FB6F894DEBF0FBEC1
:10574000CDBFDF91CF910895CF93DF9300D01F920B
:105750001F92CDB7DEB78D831A8219821B8260E05B
:1057600070E0CB010E943E751C820E9488599A838A
:10577000898389819A81892B39F089819A8102965E
:1057800019F081E08B830DC08C81882321F48981FD
:105790009A81029619F081E090E002C080E090E0EA
:1057A0008C838B818823E1F40E940D359A83898351
:1057B00089819A81892B39F089819A81029619F021
:1057C00081E08B830DC08C81882321F489819A81AB
:1057D000029619F081E090E002C080E090E08C83B6
:1057E0008B818823E1F40E9413599A8389838981EC
:1057F0009A81892B39F089819A81029619F081E08A
:105800008B830DC08C81882321F489819A81029633
:1058100019F081E090E002C080E090E08C838D81FF
:10582000882391F060E070E0CB010E943E758B818F
:10583000882319F48C81882319F481E090E002C058
:1058400080E090E08B8302C081E08B838B81882392
:1058500009F48ACF89819A810F900F900F900F9051
:105860000F90DF91CF910895CF93DF9300D000D0B8
:105870001F921F92CDB7DEB718861F828091F10468
:10588000882329F060E070E0CB010E9459360E9425
:1058900036369E838D8319821A821B821C8218C021
:1058A0006AE070E080E090E00E943E7589819A8114
:1058B000AB81BC81805F984DAF4FBF4F89839A8386
:1058C000AB83BC8381E040DF0E9436369E838D83AC
:1058D00089819A81AB81BC8181159D42A143B140F0
:1058E00020F48D819E81892BD9F60E9441369887BC
:1058F0008F830E94235B98878F831092D904109224
:10590000DA041092DD041092DE041092DF0410928B
:10591000E0041092E1041092E2041092E304109269
:10592000E4041092E5041092E6041092E704109249
:10593000E8041092E9041092EA041092EB04109229
:10594000EC041092ED041092EE041092EF04109209
:10595000F0048EEF9FEFAFEFBFEF80936A0290935A
:105960006B02A0936C02B0936D021092F10448E0B8
:1059700050E060E070E086EF94E00E947881109241
:10598000FE041092FF04109200051092010510927F
:10599000020510920305109204051092050510925D
:1059A000060510920705109208051092090510923D
:1059B0000A0510920B0510920C0510920D058F81AF
:1059C000988528960FB6F894DEBF0FBECDBFDF9145
:1059D000CF910895CF93DF9300D000D01F921F92F4
:1059E000CDB7DEB78091100590911105A0911205F9
:1059F000B09113059A83898389819A81892B09F44F
:105A000031C180911405882369F48091100590912B
:105A10001105A0911205B0911305892B8A2B8B2BB0
:105A200009F420C18091280590912905029709F079
:105A300019C180913205882309F014C189819A81A6
:105A4000FC0180819181A281B3818B839C83AD8392
:105A5000BE8380912E05882309F4F0C08091210532
:105A600090912205892B31F080912105909122059A
:105A7000029719F481E090E002C080E090E08F830B
:105A80008091210590912205019731F080912105A7
:105A900090912205029719F481E090E002C080E025
:105AA00090E088878F81882309F462C08091150572
:105AB00090911605A0911705B09118059C01AD01B4
:105AC0006B817C818D819E810E9413718823B4F04B
:105AD00080912A0590912B05A0912C05B0912D0560
